{
  "address": "0xA38A58D66DC8627a820CDed39AE2E46739FAe7AC",
  "abi": [
    {
      "inputs": [
        {
          "internalType": "address",
          "name": "_checkpointManager",
          "type": "address"
        },
        {
          "internalType": "address",
          "name": "_fxRoot",
          "type": "address"
        },
        {
          "internalType": "address",
          "name": "_rootTokenTemplate",
          "type": "address"
        }
      ],
      "stateMutability": "nonpayable",
      "type": "constructor"
    },
    {
      "anonymous": false,
      "inputs": [
        {
          "indexed": true,
          "internalType": "address",
          "name": "rootToken",
          "type": "address"
        },
        {
          "indexed": true,
          "internalType": "address",
          "name": "userAddress",
          "type": "address"
        },
        {
          "indexed": false,
          "internalType": "uint256[]",
          "name": "ids",
          "type": "uint256[]"
        },
        {
          "indexed": false,
          "internalType": "uint256[]",
          "name": "amounts",
          "type": "uint256[]"
        }
      ],
      "name": "FxDepositBatchMintableERC1155",
      "type": "event"
    },
    {
      "anonymous": false,
      "inputs": [
        {
          "indexed": true,
          "internalType": "address",
          "name": "rootToken",
          "type": "address"
        },
        {
          "indexed": true,
          "internalType": "address",
          "name": "depositor",
          "type": "address"
        },
        {
          "indexed": true,
          "internalType": "address",
          "name": "userAddress",
          "type": "address"
        },
        {
          "indexed": false,
          "internalType": "uint256",
          "name": "id",
          "type": "uint256"
        },
        {
          "indexed": false,
          "internalType": "uint256",
          "name": "amount",
          "type": "uint256"
        }
      ],
      "name": "FxDepositMintableERC1155",
      "type": "event"
    },
    {
      "anonymous": false,
      "inputs": [
        {
          "indexed": true,
          "internalType": "address",
          "name": "rootToken",
          "type": "address"
        },
        {
          "indexed": true,
          "internalType": "address",
          "name": "childToken",
          "type": "address"
        },
        {
          "indexed": true,
          "internalType": "address",
          "name": "userAddress",
          "type": "address"
        },
        {
          "indexed": false,
          "internalType": "uint256[]",
          "name": "ids",
          "type": "uint256[]"
        },
        {
          "indexed": false,
          "internalType": "uint256[]",
          "name": "amounts",
          "type": "uint256[]"
        }
      ],
      "name": "FxWithdrawBatchMintableERC1155",
      "type": "event"
    },
    {
      "anonymous": false,
      "inputs": [
        {
          "indexed": true,
          "internalType": "address",
          "name": "rootToken",
          "type": "address"
        },
        {
          "indexed": true,
          "internalType": "address",
          "name": "childToken",
          "type": "address"
        },
        {
          "indexed": true,
          "internalType": "address",
          "name": "userAddress",
          "type": "address"
        },
        {
          "indexed": false,
          "internalType": "uint256",
          "name": "id",
          "type": "uint256"
        },
        {
          "indexed": false,
          "internalType": "uint256",
          "name": "amount",
          "type": "uint256"
        }
      ],
      "name": "FxWithdrawMintableERC1155",
      "type": "event"
    },
    {
      "anonymous": false,
      "inputs": [
        {
          "indexed": true,
          "internalType": "address",
          "name": "rootToken",
          "type": "address"
        },
        {
          "indexed": true,
          "internalType": "address",
          "name": "childToken",
          "type": "address"
        }
      ],
      "name": "TokenMappedMintableERC1155",
      "type": "event"
    },
    {
      "inputs": [],
      "name": "DEPOSIT",
      "outputs": [
        {
          "internalType": "bytes32",
          "name": "",
          "type": "bytes32"
        }
      ],
      "stateMutability": "view",
      "type": "function"
    },
    {
      "inputs": [],
      "name": "DEPOSIT_BATCH",
      "outputs": [
        {
          "internalType": "bytes32",
          "name": "",
          "type": "bytes32"
        }
      ],
      "stateMutability": "view",
      "type": "function"
    },
    {
      "inputs": [],
      "name": "SEND_MESSAGE_EVENT_SIG",
      "outputs": [
        {
          "internalType": "bytes32",
          "name": "",
          "type": "bytes32"
        }
      ],
      "stateMutability": "view",
      "type": "function"
    },
    {
      "inputs": [],
      "name": "WITHDRAW",
      "outputs": [
        {
          "internalType": "bytes32",
          "name": "",
          "type": "bytes32"
        }
      ],
      "stateMutability": "view",
      "type": "function"
    },
    {
      "inputs": [],
      "name": "WITHDRAW_BATCH",
      "outputs": [
        {
          "internalType": "bytes32",
          "name": "",
          "type": "bytes32"
        }
      ],
      "stateMutability": "view",
      "type": "function"
    },
    {
      "inputs": [],
      "name": "checkpointManager",
      "outputs": [
        {
          "internalType": "contract ICheckpointManager",
          "name": "",
          "type": "address"
        }
      ],
      "stateMutability": "view",
      "type": "function"
    },
    {
      "inputs": [
        {
          "internalType": "bytes32",
          "name": "salt",
          "type": "bytes32"
        },
        {
          "internalType": "bytes32",
          "name": "bytecodeHash",
          "type": "bytes32"
        },
        {
          "internalType": "address",
          "name": "deployer",
          "type": "address"
        }
      ],
      "name": "computedCreate2Address",
      "outputs": [
        {
          "internalType": "address",
          "name": "",
          "type": "address"
        }
      ],
      "stateMutability": "pure",
      "type": "function"
    },
    {
      "inputs": [
        {
          "internalType": "address",
          "name": "rootToken",
          "type": "address"
        },
        {
          "internalType": "address",
          "name": "user",
          "type": "address"
        },
        {
          "internalType": "uint256",
          "name": "id",
          "type": "uint256"
        },
        {
          "internalType": "uint256",
          "name": "amount",
          "type": "uint256"
        },
        {
          "internalType": "bytes",
          "name": "data",
          "type": "bytes"
        }
      ],
      "name": "deposit",
      "outputs": [],
      "stateMutability": "nonpayable",
      "type": "function"
    },
    {
      "inputs": [
        {
          "internalType": "address",
          "name": "rootToken",
          "type": "address"
        },
        {
          "internalType": "address",
          "name": "user",
          "type": "address"
        },
        {
          "internalType": "uint256[]",
          "name": "ids",
          "type": "uint256[]"
        },
        {
          "internalType": "uint256[]",
          "name": "amounts",
          "type": "uint256[]"
        },
        {
          "internalType": "bytes",
          "name": "data",
          "type": "bytes"
        }
      ],
      "name": "depositBatch",
      "outputs": [],
      "stateMutability": "nonpayable",
      "type": "function"
    },
    {
      "inputs": [],
      "name": "fxChildTunnel",
      "outputs": [
        {
          "internalType": "address",
          "name": "",
          "type": "address"
        }
      ],
      "stateMutability": "view",
      "type": "function"
    },
    {
      "inputs": [],
      "name": "fxRoot",
      "outputs": [
        {
          "internalType": "contract IFxStateSender",
          "name": "",
          "type": "address"
        }
      ],
      "stateMutability": "view",
      "type": "function"
    },
    {
      "inputs": [
        {
          "internalType": "address",
          "name": "",
          "type": "address"
        },
        {
          "internalType": "address",
          "name": "",
          "type": "address"
        },
        {
          "internalType": "uint256[]",
          "name": "",
          "type": "uint256[]"
        },
        {
          "internalType": "uint256[]",
          "name": "",
          "type": "uint256[]"
        },
        {
          "internalType": "bytes",
          "name": "",
          "type": "bytes"
        }
      ],
      "name": "onERC1155BatchReceived",
      "outputs": [
        {
          "internalType": "bytes4",
          "name": "",
          "type": "bytes4"
        }
      ],
      "stateMutability": "nonpayable",
      "type": "function"
    },
    {
      "inputs": [
        {
          "internalType": "address",
          "name": "",
          "type": "address"
        },
        {
          "internalType": "address",
          "name": "",
          "type": "address"
        },
        {
          "internalType": "uint256",
          "name": "",
          "type": "uint256"
        },
        {
          "internalType": "uint256",
          "name": "",
          "type": "uint256"
        },
        {
          "internalType": "bytes",
          "name": "",
          "type": "bytes"
        }
      ],
      "name": "onERC1155Received",
      "outputs": [
        {
          "internalType": "bytes4",
          "name": "",
          "type": "bytes4"
        }
      ],
      "stateMutability": "nonpayable",
      "type": "function"
    },
    {
      "inputs": [
        {
          "internalType": "bytes32",
          "name": "",
          "type": "bytes32"
        }
      ],
      "name": "processedExits",
      "outputs": [
        {
          "internalType": "bool",
          "name": "",
          "type": "bool"
        }
      ],
      "stateMutability": "view",
      "type": "function"
    },
    {
      "inputs": [
        {
          "internalType": "bytes",
          "name": "inputData",
          "type": "bytes"
        }
      ],
      "name": "receiveMessage",
      "outputs": [],
      "stateMutability": "nonpayable",
      "type": "function"
    },
    {
      "inputs": [
        {
          "internalType": "address",
          "name": "",
          "type": "address"
        }
      ],
      "name": "rootToChildTokens",
      "outputs": [
        {
          "internalType": "address",
          "name": "",
          "type": "address"
        }
      ],
      "stateMutability": "view",
      "type": "function"
    },
    {
      "inputs": [],
      "name": "rootTokenTemplate",
      "outputs": [
        {
          "internalType": "address",
          "name": "",
          "type": "address"
        }
      ],
      "stateMutability": "view",
      "type": "function"
    },
    {
      "inputs": [
        {
          "internalType": "address",
          "name": "_fxChildTunnel",
          "type": "address"
        }
      ],
      "name": "setFxChildTunnel",
      "outputs": [],
      "stateMutability": "nonpayable",
      "type": "function"
    },
    {
      "inputs": [
        {
          "internalType": "bytes4",
          "name": "interfaceId",
          "type": "bytes4"
        }
      ],
      "name": "supportsInterface",
      "outputs": [
        {
          "internalType": "bool",
          "name": "",
          "type": "bool"
        }
      ],
      "stateMutability": "view",
      "type": "function"
    }
  ],
  "transactionHash": "0x54956321f6d416ff8627d8f4a66da4550c5c846e49487a644e874f49aa95b1ae",
  "args": [
    "0x2890bA17EfE978480615e330ecB65333b880928e",
    "0x3d1d3E34f7fB6D26245E6640E1c50710eFFf15bA",
    "0xAf21e1B1F2e8711a95AB4cAa579885224a8e3461"
  ],
  "numDeployments": 1,
  "solcInputHash": "80ba27825b01b3e6837ed09485351d01",
  "bytecode": "0x60a06040523480156200001157600080fd5b506040516200518e3803806200518e833981810160405281019062000037919062000113565b828281600160006101000a81548173ffffffffffffffffffffffffffffffffffffffff021916908373ffffffffffffffffffffffffffffffffffffffff160217905550806000806101000a81548173ffffffffffffffffffffffffffffffffffffffff021916908373ffffffffffffffffffffffffffffffffffffffff16021790555050508073ffffffffffffffffffffffffffffffffffffffff1660808173ffffffffffffffffffffffffffffffffffffffff1660601b81525050505050620001c2565b6000815190506200010d81620001a8565b92915050565b6000806000606084860312156200012f576200012e620001a3565b5b60006200013f86828701620000fc565b93505060206200015286828701620000fc565b92505060406200016586828701620000fc565b9150509250925092565b60006200017c8262000183565b9050919050565b600073ffffffffffffffffffffffffffffffffffffffff82169050919050565b600080fd5b620001b3816200016f565b8114620001bf57600080fd5b50565b60805160601c614fa6620001e86000396000818161048b015261295e0152614fa66000f3fe608060405234801561001057600080fd5b50600436106101215760003560e01c8063aea4e49e116100ad578063d81c8e5211610071578063d81c8e5214610320578063d911b1ac1461033e578063de9b771f1461035a578063f23a6e6114610378578063f953cec7146103a857610121565b8063aea4e49e1461027a578063b2edfcd214610296578063b324d3ed146102b4578063bc197c81146102d2578063c0857ba01461030257610121565b8063607f2d42116100f4578063607f2d42146101b057806371b8dc69146101e05780637337957f146101fc57806388e700681461022c578063972c49281461025c57610121565b806301ffc9a7146101265780630e387de61461015657806316ba7197146101745780634ddf625614610192575b600080fd5b610140600480360381019061013b919061386f565b6103c4565b60405161014d91906141d1565b60405180910390f35b61015e61043e565b60405161016b91906141ec565b60405180910390f35b61017c610465565b60405161018991906141ec565b60405180910390f35b61019a610489565b6040516101a79190613e64565b60405180910390f35b6101ca60048036038101906101c59190613718565b6104ad565b6040516101d791906141d1565b60405180910390f35b6101fa60048036038101906101f591906135e7565b6104cd565b005b61021660048036038101906102119190613745565b61070c565b6040516102239190613e64565b60405180910390f35b61024660048036038101906102419190613223565b610750565b6040516102539190613e64565b60405180910390f35b610264610783565b6040516102719190613e64565b60405180910390f35b610294600480360381019061028f9190613223565b6107a9565b005b61029e61087e565b6040516102ab91906141ec565b60405180910390f35b6102bc6108a2565b6040516102c991906141ec565b60405180910390f35b6102ec60048036038101906102e79190613518565b6108c6565b6040516102f99190614237565b60405180910390f35b61030a6108db565b6040516103179190614252565b60405180910390f35b610328610901565b60405161033591906141ec565b60405180910390f35b6103586004803603810190610353919061343c565b610925565b005b610362610b5b565b60405161036f919061426d565b60405180910390f35b610392600480360381019061038d9190613681565b610b7f565b60405161039f9190614237565b60405180910390f35b6103c260048036038101906103bd919061389c565b610b94565b005b60007f4e2312e0000000000000000000000000000000000000000000000000000000007bffffffffffffffffffffffffffffffffffffffffffffffffffffffff1916827bffffffffffffffffffffffffffffffffffffffffffffffffffffffff19161480610437575061043682610bae565b5b9050919050565b7f8c5261668696ce22758910d05bab8f186d6eb247ceac2af2e82c7dc17669b03660001b81565b7f7a8dc26796a1e50e6e190b70259f58f6a4edd5b22280ceecc82b687b8e98286981565b7f000000000000000000000000000000000000000000000000000000000000000081565b60036020528060005260406000206000915054906101000a900460ff1681565b600073ffffffffffffffffffffffffffffffffffffffff16600460008873ffffffffffffffffffffffffffffffffffffffff1673ffffffffffffffffffffffffffffffffffffffff16815260200190815260200160002060009054906101000a900473ffffffffffffffffffffffffffffffffffffffff1673ffffffffffffffffffffffffffffffffffffffff16141561059c576040517f08c379a0000000000000000000000000000000000000000000000000000000008152600401610593906142e8565b60405180910390fd5b8573ffffffffffffffffffffffffffffffffffffffff1663f242432a3330878787876040518763ffffffff1660e01b81526004016105df96959493929190614079565b600060405180830381600087803b1580156105f957600080fd5b505af115801561060d573d6000803e3d6000fd5b505050506106867f87a7811f4bfedea3d341ad165680ae306b01aaeacc205d227629cf157dd9f821873388888888886040516020016106529796959493929190613efb565b604051602081830303815290604052604051602001610672929190614207565b604051602081830303815290604052610c18565b8473ffffffffffffffffffffffffffffffffffffffff163373ffffffffffffffffffffffffffffffffffffffff168773ffffffffffffffffffffffffffffffffffffffff167fd8c1520fcddfeaf2a483cc53b571a2ff16d3fb642f7c64fa9ac200c7e3c9d45587876040516106fc929190614423565b60405180910390a4505050505050565b60008060ff60f81b83868660405160200161072a9493929190613d63565b6040516020818303038152906040528051906020012090508060001c9150509392505050565b60046020528060005260406000206000915054906101000a900473ffffffffffffffffffffffffffffffffffffffff1681565b600260009054906101000a900473ffffffffffffffffffffffffffffffffffffffff1681565b600073ffffffffffffffffffffffffffffffffffffffff16600260009054906101000a900473ffffffffffffffffffffffffffffffffffffffff1673ffffffffffffffffffffffffffffffffffffffff161461083a576040517f08c379a000000000000000000000000000000000000000000000000000000000815260040161083190614288565b60405180910390fd5b80600260006101000a81548173ffffffffffffffffffffffffffffffffffffffff021916908373ffffffffffffffffffffffffffffffffffffffff16021790555050565b7faf50c8eab81226bc79eee3a10e3fe25db1a2be7241130e392b0675df839b6d1881565b7f5fb452c5a8f2b7c7ef2984e2f1063c7ee9b80b110cdc98ccb98f6654e10b5ed281565b600063bc197c8160e01b905095945050505050565b600160009054906101000a900473ffffffffffffffffffffffffffffffffffffffff1681565b7f87a7811f4bfedea3d341ad165680ae306b01aaeacc205d227629cf157dd9f82181565b600073ffffffffffffffffffffffffffffffffffffffff16600460008a73ffffffffffffffffffffffffffffffffffffffff1673ffffffffffffffffffffffffffffffffffffffff16815260200190815260200160002060009054906101000a900473ffffffffffffffffffffffffffffffffffffffff1673ffffffffffffffffffffffffffffffffffffffff1614156109f4576040517f08c379a00000000000000000000000000000000000000000000000000000000081526004016109eb906142e8565b60405180910390fd5b8773ffffffffffffffffffffffffffffffffffffffff16632eb2c2d633308989898989896040518963ffffffff1660e01b8152600401610a3b989796959493929190613f65565b600060405180830381600087803b158015610a5557600080fd5b505af1158015610a69573d6000803e3d6000fd5b50505050610ae67faf50c8eab81226bc79eee3a10e3fe25db1a2be7241130e392b0675df839b6d1889338a8a8a8a8a8a8a604051602001610ab299989796959493929190613e7f565b604051602081830303815290604052604051602001610ad2929190614207565b604051602081830303815290604052610c18565b8673ffffffffffffffffffffffffffffffffffffffff168873ffffffffffffffffffffffffffffffffffffffff167f69656dacfd66b02e2b1e7661132c693f3db232871ad46444046705dcc09e429d88888888604051610b49949392919061415f565b60405180910390a35050505050505050565b60008054906101000a900473ffffffffffffffffffffffffffffffffffffffff1681565b600063f23a6e6160e01b905095945050505050565b6000610b9f82610cca565b9050610baa81610fcf565b5050565b60007f01ffc9a7000000000000000000000000000000000000000000000000000000007bffffffffffffffffffffffffffffffffffffffffffffffffffffffff1916827bffffffffffffffffffffffffffffffffffffffffffffffffffffffff1916149050919050565b60008054906101000a900473ffffffffffffffffffffffffffffffffffffffff1673ffffffffffffffffffffffffffffffffffffffff1663b4720477600260009054906101000a900473ffffffffffffffffffffffffffffffffffffffff16836040518363ffffffff1660e01b8152600401610c9592919061412f565b600060405180830381600087803b158015610caf57600080fd5b505af1158015610cc3573d6000803e3d6000fd5b5050505050565b60606000610cd783611097565b90506000610ce4826110cb565b90506000610cf1836110fc565b9050600081610cff8461112d565b610d0886611343565b604051602001610d1a93929190613ddd565b604051602081830303815290604052805190602001209050600015156003600083815260200190815260200160002060009054906101000a900460ff16151514610d99576040517f08c379a0000000000000000000000000000000000000000000000000000000008152600401610d90906142c8565b60405180910390fd5b60016003600083815260200190815260200160002060006101000a81548160ff0219169083151502179055506000610dd085611374565b90506000610ddd82611499565b9050610de881611510565b73ffffffffffffffffffffffffffffffffffffffff16600260009054906101000a900473ffffffffffffffffffffffffffffffffffffffff1673ffffffffffffffffffffffffffffffffffffffff1614610e77576040517f08c379a0000000000000000000000000000000000000000000000000000000008152600401610e6e906143e8565b60405180910390fd5b6000610e8287611541565b9050610ea0610e9084611575565b87610e9a8a611583565b846115b4565b610edf576040517f08c379a0000000000000000000000000000000000000000000000000000000008152600401610ed6906142a8565b60405180910390fd5b610f0d85610eec896118ba565b610ef58a6118eb565b84610eff8c61191f565b610f088d611950565b611981565b506000610f1983611ad7565b90507f8c5261668696ce22758910d05bab8f186d6eb247ceac2af2e82c7dc17669b03660001b610f5b610f56600084611b1c90919063ffffffff16565b611b4b565b60001b14610f9e576040517f08c379a0000000000000000000000000000000000000000000000000000000008152600401610f9590614388565b60405180910390fd5b6000610fa984611bce565b806020019051810190610fbc91906138e5565b9050809950505050505050505050919050565b60008082806020019051810190610fe69190613798565b915091507f7a8dc26796a1e50e6e190b70259f58f6a4edd5b22280ceecc82b687b8e9828698214156110205761101b81611bff565b611092565b7f5fb452c5a8f2b7c7ef2984e2f1063c7ee9b80b110cdc98ccb98f6654e10b5ed28214156110565761105181611ea5565b611091565b6040517f08c379a0000000000000000000000000000000000000000000000000000000008152600401611088906143a8565b60405180910390fd5b5b505050565b61109f612dc2565b60006110b26110ad8461214b565b612179565b9050604051806020016040528082815250915050919050565b60606110f582600001516008815181106110e8576110e7614b35565b5b602002602001015161228e565b9050919050565b6000611126826000015160028151811061111957611118614b35565b5b6020026020010151611b4b565b9050919050565b6060600060405180602001604052806000815250905060008351111561133a5760008061115b600086612345565b60f81c905060018160ff161480611175575060038160ff16145b1561123f5760016002865161118a91906147a4565b61119491906147fe565b67ffffffffffffffff8111156111ad576111ac614b64565b5b6040519080825280601f01601f1916602001820160405280156111df5781602001600182028036833780820191505090505b50925060006111ef600187612345565b9050808460008151811061120657611205614b35565b5b60200101907effffffffffffffffffffffffffffffffffffffffffffffffffffffffffffff1916908160001a90535060019250506112ab565b600280865161124e91906147a4565b61125891906147fe565b67ffffffffffffffff81111561127157611270614b64565b5b6040519080825280601f01601f1916602001820160405280156112a35781602001600182028036833780820191505090505b509250600091505b60008260ff1690505b8351811015611336576112e160028460ff16836112d191906147fe565b6112db919061457b565b87612345565b8482815181106112f4576112f3614b35565b5b60200101907effffffffffffffffffffffffffffffffffffffffffffffffffffffffffffff1916908160001a905350808061132e906149ea565b9150506112b4565b5050505b80915050919050565b600061136d82600001516009815181106113605761135f614b35565b5b6020026020010151611b4b565b9050919050565b61137c612dd5565b6113a4826000015160068151811061139757611396614b35565b5b602002602001015161228e565b816020018190525060006113bb826020015161214b565b90506113c6816123dd565b156113e1576113d481612179565b8260000181905250611481565b6000826020015190506000600182516113fa91906147fe565b67ffffffffffffffff81111561141357611412614b64565b5b6040519080825280601f01601f1916602001820160405280156114455781602001600182028036833780820191505090505b5090506000808360210191508260200190506114638282855161242b565b61147461146f8461214b565b612179565b8660000181905250505050505b61148a83611343565b82604001818152505050919050565b6114a1612df6565b60006114cb83600001516003815181106114be576114bd614b35565b5b6020026020010151612179565b8360400151815181106114e1576114e0614b35565b5b60200260200101519050604051806040016040528082815260200161150583612179565b815250915050919050565b600061153a826020015160008151811061152d5761152c614b35565b5b60200260200101516124c8565b9050919050565b600061156b826000015160058151811061155e5761155d614b35565b5b6020026020010151611b4b565b60001b9050919050565b606081602001519050919050565b60606115ad82600001516007815181106115a05761159f614b35565b5b602002602001015161228e565b9050919050565b6000806115c08461214b565b905060006115cd82612179565b905060608060008690506000806115e38b61112d565b90506000815114156115ff5760009750505050505050506118b2565b60005b86518110156118a9578151831115611625576000985050505050505050506118b2565b61164887828151811061163b5761163a614b35565b5b60200260200101516124eb565b955085805190602001208414611669576000985050505050505050506118b2565b61168c87828151811061167f5761167e614b35565b5b6020026020010151612179565b945060118551141561177f5781518314156116fc578c805190602001206116cd866010815181106116c0576116bf614b35565b5b602002602001015161228e565b8051906020012014156116eb576001985050505050505050506118b2565b6000985050505050505050506118b2565b600082848151811061171157611710614b35565b5b602001015160f81c60f81b60f81c905060108160ff16111561173f57600099505050505050505050506118b2565b611765868260ff168151811061175857611757614b35565b5b602002602001015161257b565b60001b9450600184611777919061457b565b935050611896565b6002855114156118845760006117b96117b2876000815181106117a5576117a4614b35565b5b602002602001015161228e565b84866125b2565b9050825181856117c9919061457b565b141561182c578d805190602001206117fb876001815181106117ee576117ed614b35565b5b602002602001015161228e565b80519060200120141561181a57600199505050505050505050506118b2565b600099505050505050505050506118b2565b600081141561184757600099505050505050505050506118b2565b8084611853919061457b565b93506118798660018151811061186c5761186b614b35565b5b602002602001015161257b565b60001b945050611895565b6000985050505050505050506118b2565b5b80806118a1906149ea565b915050611602565b50505050505050505b949350505050565b60006118e482600001516003815181106118d7576118d6614b35565b5b6020026020010151611b4b565b9050919050565b6000611915826000015160048151811061190857611907614b35565b5b6020026020010151611b4b565b60001b9050919050565b6000611949826000015160008151811061193c5761193b614b35565b5b6020026020010151611b4b565b9050919050565b606061197a826000015160018151811061196d5761196c614b35565b5b602002602001015161228e565b9050919050565b600080600080600160009054906101000a900473ffffffffffffffffffffffffffffffffffffffff1673ffffffffffffffffffffffffffffffffffffffff166341539d4a876040518263ffffffff1660e01b81526004016119e29190614408565b60a06040518083038186803b1580156119fa57600080fd5b505afa158015611a0e573d6000803e3d6000fd5b505050506040513d601f19601f82011682018060405250810190611a3291906137f4565b5093505092509250611a88828b611a4991906147fe565b84878d8d8d8d604051602001611a629493929190613e16565b604051602081830303815290604052805190602001206126e8909392919063ffffffff16565b611ac7576040517f08c379a0000000000000000000000000000000000000000000000000000000008152600401611abe90614348565b60405180910390fd5b8093505050509695505050505050565b611adf612e16565b6040518060200160405280611b128460200151600181518110611b0557611b04614b35565b5b6020026020010151612179565b8152509050919050565b611b24612e29565b82600001518281518110611b3b57611b3a614b35565b5b6020026020010151905092915050565b6000808260000151118015611b6557506021826000015111155b611b6e57600080fd5b6000611b7d8360200151612859565b90506000818460000151611b9191906147fe565b9050600080838660200151611ba6919061457b565b9050805191506020831015611bc257826020036101000a820491505b81945050505050919050565b6060611bf88260200151600281518110611beb57611bea614b35565b5b602002602001015161228e565b9050919050565b600080600080600080600087806020019051810190611c1e9190613362565b9650965096509650965096509650611c3587612918565b158015611ccd5750600073ffffffffffffffffffffffffffffffffffffffff16600460008973ffffffffffffffffffffffffffffffffffffffff1673ffffffffffffffffffffffffffffffffffffffff16815260200190815260200160002060009054906101000a900473ffffffffffffffffffffffffffffffffffffffff1673ffffffffffffffffffffffffffffffffffffffff16145b15611cdd57611cdc878261292b565b5b8573ffffffffffffffffffffffffffffffffffffffff16600460008973ffffffffffffffffffffffffffffffffffffffff1673ffffffffffffffffffffffffffffffffffffffff16815260200190815260200160002060009054906101000a900473ffffffffffffffffffffffffffffffffffffffff1673ffffffffffffffffffffffffffffffffffffffff1614611daa576040517f08c379a0000000000000000000000000000000000000000000000000000000008152600401611da190614368565b60405180910390fd5b8673ffffffffffffffffffffffffffffffffffffffff1663f242432a30878787876040518663ffffffff1660e01b8152600401611deb9594939291906140d5565b600060405180830381600087803b158015611e0557600080fd5b505af1158015611e19573d6000803e3d6000fd5b505050508473ffffffffffffffffffffffffffffffffffffffff168673ffffffffffffffffffffffffffffffffffffffff168873ffffffffffffffffffffffffffffffffffffffff167f6b6c02c8562a317842f2ed9df3f7c5c78b5e5bfc8f25c31d5f40a8f0abc4f57c8787604051611e93929190614423565b60405180910390a45050505050505050565b600080600080600080600087806020019051810190611ec49190613250565b9650965096509650965096509650611edb87612918565b158015611f735750600073ffffffffffffffffffffffffffffffffffffffff16600460008973ffffffffffffffffffffffffffffffffffffffff1673ffffffffffffffffffffffffffffffffffffffff16815260200190815260200160002060009054906101000a900473ffffffffffffffffffffffffffffffffffffffff1673ffffffffffffffffffffffffffffffffffffffff16145b15611f8357611f82878261292b565b5b8573ffffffffffffffffffffffffffffffffffffffff16600460008973ffffffffffffffffffffffffffffffffffffffff1673ffffffffffffffffffffffffffffffffffffffff16815260200190815260200160002060009054906101000a900473ffffffffffffffffffffffffffffffffffffffff1673ffffffffffffffffffffffffffffffffffffffff1614612050576040517f08c379a000000000000000000000000000000000000000000000000000000000815260040161204790614368565b60405180910390fd5b8673ffffffffffffffffffffffffffffffffffffffff16632eb2c2d630878787876040518663ffffffff1660e01b8152600401612091959493929190613fd3565b600060405180830381600087803b1580156120ab57600080fd5b505af11580156120bf573d6000803e3d6000fd5b505050508473ffffffffffffffffffffffffffffffffffffffff168673ffffffffffffffffffffffffffffffffffffffff168873ffffffffffffffffffffffffffffffffffffffff167fb5e92c41ab5daf76e6f37941f397924c5fd612c40bb87c21c6b162c9a9db65c2878760405161213992919061419a565b60405180910390a45050505050505050565b612153612e29565b600060208301905060405180604001604052808451815260200182815250915050919050565b6060612184826123dd565b61218d57600080fd5b600061219883612ad1565b905060008167ffffffffffffffff8111156121b6576121b5614b64565b5b6040519080825280602002602001820160405280156121ef57816020015b6121dc612e29565b8152602001906001900390816121d45790505b50905060006122018560200151612859565b8560200151612210919061457b565b9050600080600090505b848110156122815761222b83612b5f565b915060405180604001604052808381526020018481525084828151811061225557612254614b35565b5b6020026020010181905250818361226c919061457b565b92508080612279906149ea565b91505061221a565b5082945050505050919050565b606060008260000151116122a157600080fd5b60006122b08360200151612859565b905060008184600001516122c491906147fe565b905060008167ffffffffffffffff8111156122e2576122e1614b64565b5b6040519080825280601f01601f1916602001820160405280156123145781602001600182028036833780820191505090505b5090506000816020019050612339848760200151612332919061457b565b8285612c3b565b81945050505050919050565b6000806002846123559190614a75565b146123985760108260028561236a91906145d1565b8151811061237b5761237a614b35565b5b602001015160f81c60f81b60f81c6123939190614aa6565b6123d2565b6010826002856123a891906145d1565b815181106123b9576123b8614b35565b5b602001015160f81c60f81b60f81c6123d19190614602565b5b60f81b905092915050565b600080826000015114156123f45760009050612426565b60008083602001519050805160001a915060c060ff168260ff16101561241f57600092505050612426565b6001925050505b919050565b6000811415612439576124c3565b5b602060ff1681106124845782518252602060ff1683612459919061457b565b9250602060ff168261246b919061457b565b9150602060ff168161247d91906147fe565b905061243a565b6000600182602060ff1661249891906147fe565b6101006124a59190614686565b6124af91906147fe565b905080198451168184511681811785525050505b505050565b600060158260000151146124db57600080fd5b6124e482611b4b565b9050919050565b60606000826000015167ffffffffffffffff81111561250d5761250c614b64565b5b6040519080825280601f01601f19166020018201604052801561253f5781602001600182028036833780820191505090505b5090506000815114156125555780915050612576565b60008160200190506125708460200151828660000151612c3b565b81925050505b919050565b6000602182600001511461258e57600080fd5b600080600184602001516125a2919061457b565b9050805191508192505050919050565b6000806000905060006125c48661112d565b90506000815167ffffffffffffffff8111156125e3576125e2614b64565b5b6040519080825280601f01601f1916602001820160405280156126155781602001600182028036833780820191505090505b50905060008590505b82518661262b919061457b565b8110156126b657600087828151811061264757612646614b35565b5b602001015160f81c60f81b90508083888461266291906147fe565b8151811061267357612672614b35565b5b60200101907effffffffffffffffffffffffffffffffffffffffffffffffffffffffffffff1916908160001a9053505080806126ae906149ea565b91505061261e565b508080519060200120828051906020012014156126d657815192506126db565b600092505b8293505050509392505050565b600080602083516126f99190614a75565b14612739576040517f08c379a000000000000000000000000000000000000000000000000000000000815260040161273090614308565b60405180910390fd5b60006020835161274991906145d1565b90508060026127589190614686565b8510612799576040517f08c379a000000000000000000000000000000000000000000000000000000000815260040161279090614328565b60405180910390fd5b6000808790506000602090505b855181116128485780860151925060006002896127c39190614a75565b14156127f95781836040516020016127dc929190613db1565b604051602081830303815290604052805190602001209150612825565b828260405160200161280c929190613db1565b6040516020818303038152906040528051906020012091505b60028861283291906145d1565b9750602081612841919061457b565b90506127a6565b508581149350505050949350505050565b600080825160001a9050608060ff16811015612879576000915050612913565b60b860ff1681108061289e575060c060ff16811015801561289d575060f860ff1681105b5b156128ad576001915050612913565b60c060ff168110156128e85760018060b86128c89190614832565b60ff16826128d691906147fe565b6128e0919061457b565b915050612913565b60018060f86128f79190614832565b60ff168261290591906147fe565b61290f919061457b565b9150505b919050565b600080823b905060008111915050919050565b60008260405160200161293e9190613d48565b6040516020818303038152906040528051906020012090506000612982827f0000000000000000000000000000000000000000000000000000000000000000612ce6565b90508073ffffffffffffffffffffffffffffffffffffffff16634571e3a63086866040518463ffffffff1660e01b81526004016129c19392919061403b565b600060405180830381600087803b1580156129db57600080fd5b505af11580156129ef573d6000803e3d6000fd5b5050505083600460008373ffffffffffffffffffffffffffffffffffffffff1673ffffffffffffffffffffffffffffffffffffffff16815260200190815260200160002060006101000a81548173ffffffffffffffffffffffffffffffffffffffff021916908373ffffffffffffffffffffffffffffffffffffffff1602179055508373ffffffffffffffffffffffffffffffffffffffff168173ffffffffffffffffffffffffffffffffffffffff167fffdd2e5669ea7feac1b3b7348b3701816a979f65197b1dc83edb7c132151b96960405160405180910390a350505050565b60008082600001511415612ae85760009050612b5a565b600080612af88460200151612859565b8460200151612b07919061457b565b9050600084600001518560200151612b1f919061457b565b90505b80821015612b5357612b3382612b5f565b82612b3e919061457b565b91508280612b4b906149ea565b935050612b22565b8293505050505b919050565b6000806000835160001a9050608060ff16811015612b805760019150612c31565b60b860ff16811015612baf576001608060ff1682612b9e91906147fe565b612ba8919061457b565b9150612c30565b60c060ff16811015612bdf5760b78103600185019450806020036101000a85510460018201810193505050612c2f565b60f860ff16811015612c0e57600160c060ff1682612bfd91906147fe565b612c07919061457b565b9150612c2e565b60f78103600185019450806020036101000a855104600182018101935050505b5b5b5b8192505050919050565b6000811415612c4957612ce1565b5b602060ff168110612c945782518252602060ff1683612c69919061457b565b9250602060ff1682612c7b919061457b565b9150602060ff1681612c8d91906147fe565b9050612c4a565b6000811415612ca257612ce1565b6000600182602060ff16612cb691906147fe565b610100612cc39190614686565b612ccd91906147fe565b905080198451168184511681811785525050505b505050565b6000808260601b90506040517f3d602d80600a3d3981f3363d3d373d3d3d363d7300000000000000000000000081528160148201527f5af43d82803e903d91602b57fd5bf300000000000000000000000000000000006028820152846037826000f5925050600073ffffffffffffffffffffffffffffffffffffffff168273ffffffffffffffffffffffffffffffffffffffff161415612dbb576040517f08c379a0000000000000000000000000000000000000000000000000000000008152600401612db2906143c8565b60405180910390fd5b5092915050565b6040518060200160405280606081525090565b60405180606001604052806060815260200160608152602001600081525090565b6040518060400160405280612e09612e29565b8152602001606081525090565b6040518060200160405280606081525090565b604051806040016040528060008152602001600081525090565b6000612e56612e5184614471565b61444c565b90508083825260208201905082856020860282011115612e7957612e78614b9d565b5b60005b85811015612ea95781612e8f88826131f9565b845260208401935060208301925050600181019050612e7c565b5050509392505050565b6000612ec6612ec184614471565b61444c565b90508083825260208201905082856020860282011115612ee957612ee8614b9d565b5b60005b85811015612f195781612eff888261320e565b845260208401935060208301925050600181019050612eec565b5050509392505050565b6000612f36612f318461449d565b61444c565b905082815260208101848484011115612f5257612f51614ba2565b5b612f5d848285614977565b509392505050565b6000612f78612f738461449d565b61444c565b905082815260208101848484011115612f9457612f93614ba2565b5b612f9f848285614986565b509392505050565b6000612fba612fb5846144ce565b61444c565b905082815260208101848484011115612fd657612fd5614ba2565b5b612fe1848285614986565b509392505050565b600081359050612ff881614efd565b92915050565b60008151905061300d81614efd565b92915050565b60008151905061302281614f14565b92915050565b60008083601f84011261303e5761303d614b98565b5b8235905067ffffffffffffffff81111561305b5761305a614b93565b5b60208301915083602082028301111561307757613076614b9d565b5b9250929050565b600082601f83011261309357613092614b98565b5b81356130a3848260208601612e43565b91505092915050565b600082601f8301126130c1576130c0614b98565b5b81516130d1848260208601612eb3565b91505092915050565b6000813590506130e981614f2b565b92915050565b6000815190506130fe81614f2b565b92915050565b60008135905061311381614f42565b92915050565b60008083601f84011261312f5761312e614b98565b5b8235905067ffffffffffffffff81111561314c5761314b614b93565b5b60208301915083600182028301111561316857613167614b9d565b5b9250929050565b600082601f83011261318457613183614b98565b5b8135613194848260208601612f23565b91505092915050565b600082601f8301126131b2576131b1614b98565b5b81516131c2848260208601612f65565b91505092915050565b600082601f8301126131e0576131df614b98565b5b81516131f0848260208601612fa7565b91505092915050565b60008135905061320881614f59565b92915050565b60008151905061321d81614f59565b92915050565b60006020828403121561323957613238614bb1565b5b600061324784828501612fe9565b91505092915050565b600080600080600080600060e0888a03121561326f5761326e614bb1565b5b600061327d8a828b01613013565b975050602061328e8a828b01613013565b965050604061329f8a828b01613013565b955050606088015167ffffffffffffffff8111156132c0576132bf614ba7565b5b6132cc8a828b016130ac565b945050608088015167ffffffffffffffff8111156132ed576132ec614ba7565b5b6132f98a828b016130ac565b93505060a088015167ffffffffffffffff81111561331a57613319614ba7565b5b6133268a828b0161319d565b92505060c088015167ffffffffffffffff81111561334757613346614ba7565b5b6133538a828b016131cb565b91505092959891949750929550565b600080600080600080600060e0888a03121561338157613380614bb1565b5b600061338f8a828b01613013565b97505060206133a08a828b01613013565b96505060406133b18a828b01613013565b95505060606133c28a828b0161320e565b94505060806133d38a828b0161320e565b93505060a088015167ffffffffffffffff8111156133f4576133f3614ba7565b5b6134008a828b0161319d565b92505060c088015167ffffffffffffffff81111561342157613420614ba7565b5b61342d8a828b016131cb565b91505092959891949750929550565b60008060008060008060008060a0898b03121561345c5761345b614bb1565b5b600061346a8b828c01612fe9565b985050602061347b8b828c01612fe9565b975050604089013567ffffffffffffffff81111561349c5761349b614ba7565b5b6134a88b828c01613028565b9650965050606089013567ffffffffffffffff8111156134cb576134ca614ba7565b5b6134d78b828c01613028565b9450945050608089013567ffffffffffffffff8111156134fa576134f9614ba7565b5b6135068b828c01613119565b92509250509295985092959890939650565b600080600080600060a0868803121561353457613533614bb1565b5b600061354288828901612fe9565b955050602061355388828901612fe9565b945050604086013567ffffffffffffffff81111561357457613573614ba7565b5b6135808882890161307e565b935050606086013567ffffffffffffffff8111156135a1576135a0614ba7565b5b6135ad8882890161307e565b925050608086013567ffffffffffffffff8111156135ce576135cd614ba7565b5b6135da8882890161316f565b9150509295509295909350565b60008060008060008060a0878903121561360457613603614bb1565b5b600061361289828a01612fe9565b965050602061362389828a01612fe9565b955050604061363489828a016131f9565b945050606061364589828a016131f9565b935050608087013567ffffffffffffffff81111561366657613665614ba7565b5b61367289828a01613119565b92509250509295509295509295565b600080600080600060a0868803121561369d5761369c614bb1565b5b60006136ab88828901612fe9565b95505060206136bc88828901612fe9565b94505060406136cd888289016131f9565b93505060606136de888289016131f9565b925050608086013567ffffffffffffffff8111156136ff576136fe614ba7565b5b61370b8882890161316f565b9150509295509295909350565b60006020828403121561372e5761372d614bb1565b5b600061373c848285016130da565b91505092915050565b60008060006060848603121561375e5761375d614bb1565b5b600061376c868287016130da565b935050602061377d868287016130da565b925050604061378e86828701612fe9565b9150509250925092565b600080604083850312156137af576137ae614bb1565b5b60006137bd858286016130ef565b925050602083015167ffffffffffffffff8111156137de576137dd614ba7565b5b6137ea8582860161319d565b9150509250929050565b600080600080600060a086880312156138105761380f614bb1565b5b600061381e888289016130ef565b955050602061382f8882890161320e565b94505060406138408882890161320e565b93505060606138518882890161320e565b925050608061386288828901612ffe565b9150509295509295909350565b60006020828403121561388557613884614bb1565b5b600061389384828501613104565b91505092915050565b6000602082840312156138b2576138b1614bb1565b5b600082013567ffffffffffffffff8111156138d0576138cf614ba7565b5b6138dc8482850161316f565b91505092915050565b6000602082840312156138fb576138fa614bb1565b5b600082015167ffffffffffffffff81111561391957613918614ba7565b5b6139258482850161319d565b91505092915050565b600061393a8383613d13565b60208301905092915050565b61394f81614866565b82525050565b61396661396182614866565b614a33565b82525050565b6000613978838561453d565b93507f07ffffffffffffffffffffffffffffffffffffffffffffffffffffffffffffff8311156139ab576139aa614bac565b5b6020830292506139bc838584614977565b82840190509392505050565b60006139d38261450f565b6139dd818561453d565b93506139e8836144ff565b8060005b83811015613a19578151613a00888261392e565b9750613a0b83614530565b9250506001810190506139ec565b5085935050505092915050565b613a2f8161488a565b82525050565b613a46613a4182614896565b614a45565b82525050565b613a55816148c2565b82525050565b613a6c613a67826148c2565b614a4f565b82525050565b613a7b816148cc565b82525050565b6000613a8d838561454e565b9350613a9a838584614977565b613aa383614bb6565b840190509392505050565b6000613ab98261451a565b613ac3818561454e565b9350613ad3818560208601614986565b613adc81614bb6565b840191505092915050565b6000613af28261451a565b613afc818561455f565b9350613b0c818560208601614986565b80840191505092915050565b613b218161492f565b82525050565b613b3081614941565b82525050565b6000613b4182614525565b613b4b818561456a565b9350613b5b818560208601614986565b613b6481614bb6565b840191505092915050565b6000613b7c602a8361456a565b9150613b8782614be1565b604082019050919050565b6000613b9f60238361456a565b9150613baa82614c30565b604082019050919050565b6000613bc260248361456a565b9150613bcd82614c7f565b604082019050919050565b6000613be5602d8361456a565b9150613bf082614cce565b604082019050919050565b6000613c0860148361456a565b9150613c1382614d1d565b602082019050919050565b6000613c2b60158361456a565b9150613c3682614d46565b602082019050919050565b6000613c4e601c8361456a565b9150613c5982614d6f565b602082019050919050565b6000613c7160348361456a565b9150613c7c82614d98565b604082019050919050565b6000613c94601f8361456a565b9150613c9f82614de7565b602082019050919050565b6000613cb7602e8361456a565b9150613cc282614e10565b604082019050919050565b6000613cda60218361456a565b9150613ce582614e5f565b604082019050919050565b6000613cfd60258361456a565b9150613d0882614eae565b604082019050919050565b613d1c81614918565b82525050565b613d2b81614918565b82525050565b613d42613d3d82614918565b614a6b565b82525050565b6000613d548284613955565b60148201915081905092915050565b6000613d6f8287613a35565b600182019150613d7f8286613955565b601482019150613d8f8285613a5b565b602082019150613d9f8284613a5b565b60208201915081905095945050505050565b6000613dbd8285613a5b565b602082019150613dcd8284613a5b565b6020820191508190509392505050565b6000613de98286613d31565b602082019150613df98285613ae7565b9150613e058284613d31565b602082019150819050949350505050565b6000613e228287613d31565b602082019150613e328286613d31565b602082019150613e428285613a5b565b602082019150613e528284613a5b565b60208201915081905095945050505050565b6000602082019050613e796000830184613946565b92915050565b600060c082019050613e94600083018c613946565b613ea1602083018b613946565b613eae604083018a613946565b8181036060830152613ec181888a61396c565b90508181036080830152613ed681868861396c565b905081810360a0830152613eeb818486613a81565b90509a9950505050505050505050565b600060c082019050613f10600083018a613946565b613f1d6020830189613946565b613f2a6040830188613946565b613f376060830187613d22565b613f446080830186613d22565b81810360a0830152613f57818486613a81565b905098975050505050505050565b600060a082019050613f7a600083018b613946565b613f87602083018a613946565b8181036040830152613f9a81888a61396c565b90508181036060830152613faf81868861396c565b90508181036080830152613fc4818486613a81565b90509998505050505050505050565b600060a082019050613fe86000830188613946565b613ff56020830187613946565b818103604083015261400781866139c8565b9050818103606083015261401b81856139c8565b9050818103608083015261402f8184613aae565b90509695505050505050565b60006060820190506140506000830186613946565b61405d6020830185613946565b818103604083015261406f8184613b36565b9050949350505050565b600060a08201905061408e6000830189613946565b61409b6020830188613946565b6140a86040830187613d22565b6140b56060830186613d22565b81810360808301526140c8818486613a81565b9050979650505050505050565b600060a0820190506140ea6000830188613946565b6140f76020830187613946565b6141046040830186613d22565b6141116060830185613d22565b81810360808301526141238184613aae565b90509695505050505050565b60006040820190506141446000830185613946565b81810360208301526141568184613aae565b90509392505050565b6000604082019050818103600083015261417a81868861396c565b9050818103602083015261418f81848661396c565b905095945050505050565b600060408201905081810360008301526141b481856139c8565b905081810360208301526141c881846139c8565b90509392505050565b60006020820190506141e66000830184613a26565b92915050565b60006020820190506142016000830184613a4c565b92915050565b600060408201905061421c6000830185613a4c565b818103602083015261422e8184613aae565b90509392505050565b600060208201905061424c6000830184613a72565b92915050565b60006020820190506142676000830184613b18565b92915050565b60006020820190506142826000830184613b27565b92915050565b600060208201905081810360008301526142a181613b6f565b9050919050565b600060208201905081810360008301526142c181613b92565b9050919050565b600060208201905081810360008301526142e181613bb5565b9050919050565b6000602082019050818103600083015261430181613bd8565b9050919050565b6000602082019050818103600083015261432181613bfb565b9050919050565b6000602082019050818103600083015261434181613c1e565b9050919050565b6000602082019050818103600083015261436181613c41565b9050919050565b6000602082019050818103600083015261438181613c64565b9050919050565b600060208201905081810360008301526143a181613c87565b9050919050565b600060208201905081810360008301526143c181613caa565b9050919050565b600060208201905081810360008301526143e181613ccd565b9050919050565b6000602082019050818103600083015261440181613cf0565b9050919050565b600060208201905061441d6000830184613d22565b92915050565b60006040820190506144386000830185613d22565b6144456020830184613d22565b9392505050565b6000614456614467565b905061446282826149b9565b919050565b6000604051905090565b600067ffffffffffffffff82111561448c5761448b614b64565b5b602082029050602081019050919050565b600067ffffffffffffffff8211156144b8576144b7614b64565b5b6144c182614bb6565b9050602081019050919050565b600067ffffffffffffffff8211156144e9576144e8614b64565b5b6144f282614bb6565b9050602081019050919050565b6000819050602082019050919050565b600081519050919050565b600081519050919050565b600081519050919050565b6000602082019050919050565b600082825260208201905092915050565b600082825260208201905092915050565b600081905092915050565b600082825260208201905092915050565b600061458682614918565b915061459183614918565b9250827fffffffffffffffffffffffffffffffffffffffffffffffffffffffffffffffff038211156145c6576145c5614ad7565b5b828201905092915050565b60006145dc82614918565b91506145e783614918565b9250826145f7576145f6614b06565b5b828204905092915050565b600061460d82614922565b915061461883614922565b92508261462857614627614b06565b5b828204905092915050565b6000808291508390505b600185111561467d5780860481111561465957614658614ad7565b5b60018516156146685780820291505b808102905061467685614bd4565b945061463d565b94509492505050565b600061469182614918565b915061469c83614918565b92506146c97fffffffffffffffffffffffffffffffffffffffffffffffffffffffffffffffff84846146d1565b905092915050565b6000826146e1576001905061479d565b816146ef576000905061479d565b8160018114614705576002811461470f5761473e565b600191505061479d565b60ff84111561472157614720614ad7565b5b8360020a91508482111561473857614737614ad7565b5b5061479d565b5060208310610133831016604e8410600b84101617156147735782820a90508381111561476e5761476d614ad7565b5b61479d565b6147808484846001614633565b9250905081840481111561479757614796614ad7565b5b81810290505b9392505050565b60006147af82614918565b91506147ba83614918565b9250817fffffffffffffffffffffffffffffffffffffffffffffffffffffffffffffffff04831182151516156147f3576147f2614ad7565b5b828202905092915050565b600061480982614918565b915061481483614918565b92508282101561482757614826614ad7565b5b828203905092915050565b600061483d82614922565b915061484883614922565b92508282101561485b5761485a614ad7565b5b828203905092915050565b6000614871826148f8565b9050919050565b6000614883826148f8565b9050919050565b60008115159050919050565b60007fff0000000000000000000000000000000000000000000000000000000000000082169050919050565b6000819050919050565b60007fffffffff0000000000000000000000000000000000000000000000000000000082169050919050565b600073ffffffffffffffffffffffffffffffffffffffff82169050919050565b6000819050919050565b600060ff82169050919050565b600061493a82614953565b9050919050565b600061494c82614953565b9050919050565b600061495e82614965565b9050919050565b6000614970826148f8565b9050919050565b82818337600083830152505050565b60005b838110156149a4578082015181840152602081019050614989565b838111156149b3576000848401525b50505050565b6149c282614bb6565b810181811067ffffffffffffffff821117156149e1576149e0614b64565b5b80604052505050565b60006149f582614918565b91507fffffffffffffffffffffffffffffffffffffffffffffffffffffffffffffffff821415614a2857614a27614ad7565b5b600182019050919050565b6000614a3e82614a59565b9050919050565b6000819050919050565b6000819050919050565b6000614a6482614bc7565b9050919050565b6000819050919050565b6000614a8082614918565b9150614a8b83614918565b925082614a9b57614a9a614b06565b5b828206905092915050565b6000614ab182614922565b9150614abc83614922565b925082614acc57614acb614b06565b5b828206905092915050565b7f4e487b7100000000000000000000000000000000000000000000000000000000600052601160045260246000fd5b7f4e487b7100000000000000000000000000000000000000000000000000000000600052601260045260246000fd5b7f4e487b7100000000000000000000000000000000000000000000000000000000600052603260045260246000fd5b7f4e487b7100000000000000000000000000000000000000000000000000000000600052604160045260246000fd5b600080fd5b600080fd5b600080fd5b600080fd5b600080fd5b600080fd5b600080fd5b6000601f19601f8301169050919050565b60008160601b9050919050565b60008160011c9050919050565b7f467842617365526f6f7454756e6e656c3a204348494c445f54554e4e454c5f4160008201527f4c52454144595f53455400000000000000000000000000000000000000000000602082015250565b7f4678526f6f7454756e6e656c3a20494e56414c49445f524543454950545f505260008201527f4f4f460000000000000000000000000000000000000000000000000000000000602082015250565b7f4678526f6f7454756e6e656c3a20455849545f414c52454144595f50524f434560008201527f5353454400000000000000000000000000000000000000000000000000000000602082015250565b7f46784d696e7461626c6545524331313535526f6f7454756e6e656c3a204e4f5f60008201527f4d415050494e475f464f554e4400000000000000000000000000000000000000602082015250565b7f496e76616c69642070726f6f66206c656e677468000000000000000000000000600082015250565b7f4c65616620696e64657820697320746f6f206269670000000000000000000000600082015250565b7f4678526f6f7454756e6e656c3a20494e56414c49445f48454144455200000000600082015250565b7f46784d696e7461626c6545524331313535526f6f7454756e6e656c3a20494e5660008201527f414c49445f4d415050494e475f4f4e5f45584954000000000000000000000000602082015250565b7f4678526f6f7454756e6e656c3a20494e56414c49445f5349474e415455524500600082015250565b7f46784d696e7461626c6545524331313535526f6f7454756e6e656c3a20494e5660008201527f414c49445f53594e435f54595045000000000000000000000000000000000000602082015250565b7f437265617465323a204661696c6564206f6e206d696e696d616c206465706c6f60008201527f7900000000000000000000000000000000000000000000000000000000000000602082015250565b7f4678526f6f7454756e6e656c3a20494e56414c49445f46585f4348494c445f5460008201527f554e4e454c000000000000000000000000000000000000000000000000000000602082015250565b614f0681614866565b8114614f1157600080fd5b50565b614f1d81614878565b8114614f2857600080fd5b50565b614f34816148c2565b8114614f3f57600080fd5b50565b614f4b816148cc565b8114614f5657600080fd5b50565b614f6281614918565b8114614f6d57600080fd5b5056fea26469706673582212204134d506b36dce81145259439a94f685006f51ecd715ef6149fe2559bbc3537264736f6c63430008070033",
  "devdoc": {
    "kind": "dev",
    "methods": {
      "receiveMessage(bytes)": {
        "details": "This function verifies if the transaction actually happened on child chain",
        "params": {
          "inputData": "RLP encoded data of the reference tx containing following list of fields  0 - headerNumber - Checkpoint header block number containing the reference tx  1 - blockProof - Proof that the block header (in the child chain) is a leaf in the submitted merkle root  2 - blockNumber - Block number containing the reference tx on child chain  3 - blockTime - Reference tx block time  4 - txRoot - Transactions root of block  5 - receiptRoot - Receipts root of block  6 - receipt - Receipt of the reference transaction  7 - receiptProof - Merkle proof of the reference receipt  8 - branchMask - 32 bits denoting the path of receipt in merkle tree  9 - receiptLogIndex - Log Index to read from the receipt"
        }
      },
      "supportsInterface(bytes4)": {
        "details": "See {IERC165-supportsInterface}."
      }
    },
    "version": 1
  },
  "userdoc": {
    "kind": "user",
    "methods": {
      "receiveMessage(bytes)": {
        "notice": "receive message from  L2 to L1, validated by proof"
      }
    },
    "version": 1
  },
  "storageLayout": {
    "storage": [
      {
        "astId": 1687,
        "contract": "src/goerli/tunnels/FxMintableERC1155RootTunnel.sol:FxMintableERC1155RootTunnel",
        "label": "fxRoot",
        "offset": 0,
        "slot": "0",
        "type": "t_contract(IFxStateSender)1637"
      },
      {
        "astId": 1690,
        "contract": "src/goerli/tunnels/FxMintableERC1155RootTunnel.sol:FxMintableERC1155RootTunnel",
        "label": "checkpointManager",
        "offset": 0,
        "slot": "1",
        "type": "t_contract(ICheckpointManager)1655"
      },
      {
        "astId": 1692,
        "contract": "src/goerli/tunnels/FxMintableERC1155RootTunnel.sol:FxMintableERC1155RootTunnel",
        "label": "fxChildTunnel",
        "offset": 0,
        "slot": "2",
        "type": "t_address"
      },
      {
        "astId": 1696,
        "contract": "src/goerli/tunnels/FxMintableERC1155RootTunnel.sol:FxMintableERC1155RootTunnel",
        "label": "processedExits",
        "offset": 0,
        "slot": "3",
        "type": "t_mapping(t_bytes32,t_bool)"
      },
      {
        "astId": 3225,
        "contract": "src/goerli/tunnels/FxMintableERC1155RootTunnel.sol:FxMintableERC1155RootTunnel",
        "label": "rootToChildTokens",
        "offset": 0,
        "slot": "4",
        "type": "t_mapping(t_address,t_address)"
      }
    ],
    "types": {
      "t_address": {
        "encoding": "inplace",
        "label": "address",
        "numberOfBytes": "20"
      },
      "t_bool": {
        "encoding": "inplace",
        "label": "bool",
        "numberOfBytes": "1"
      },
      "t_bytes32": {
        "encoding": "inplace",
        "label": "bytes32",
        "numberOfBytes": "32"
      },
      "t_contract(ICheckpointManager)1655": {
        "encoding": "inplace",
        "label": "contract ICheckpointManager",
        "numberOfBytes": "20"
      },
      "t_contract(IFxStateSender)1637": {
        "encoding": "inplace",
        "label": "contract IFxStateSender",
        "numberOfBytes": "20"
      },
      "t_mapping(t_address,t_address)": {
        "encoding": "mapping",
        "key": "t_address",
        "label": "mapping(address => address)",
        "numberOfBytes": "32",
        "value": "t_address"
      },
      "t_mapping(t_bytes32,t_bool)": {
        "encoding": "mapping",
        "key": "t_bytes32",
        "label": "mapping(bytes32 => bool)",
        "numberOfBytes": "32",
        "value": "t_bool"
      }
    }
  }
}