{
  "address": "0x450532acF650F01dD6eAf0d62205CC3e8BA317cA",
  "abi": [
    {
      "inputs": [
        {
          "internalType": "address",
          "name": "_checkpointManager",
          "type": "address"
        },
        {
          "internalType": "address",
          "name": "_fxRoot",
          "type": "address"
        },
        {
          "internalType": "address",
          "name": "_rootTokenTemplate",
          "type": "address"
        }
      ],
      "stateMutability": "nonpayable",
      "type": "constructor"
    },
    {
      "anonymous": false,
      "inputs": [
        {
          "indexed": true,
          "internalType": "address",
          "name": "rootToken",
          "type": "address"
        },
        {
          "indexed": true,
          "internalType": "address",
          "name": "userAddress",
          "type": "address"
        },
        {
          "indexed": false,
          "internalType": "uint256[]",
          "name": "ids",
          "type": "uint256[]"
        },
        {
          "indexed": false,
          "internalType": "uint256[]",
          "name": "amounts",
          "type": "uint256[]"
        }
      ],
      "name": "FxDepositBatchMintableERC1155",
      "type": "event"
    },
    {
      "anonymous": false,
      "inputs": [
        {
          "indexed": true,
          "internalType": "address",
          "name": "rootToken",
          "type": "address"
        },
        {
          "indexed": true,
          "internalType": "address",
          "name": "depositor",
          "type": "address"
        },
        {
          "indexed": true,
          "internalType": "address",
          "name": "userAddress",
          "type": "address"
        },
        {
          "indexed": false,
          "internalType": "uint256",
          "name": "id",
          "type": "uint256"
        },
        {
          "indexed": false,
          "internalType": "uint256",
          "name": "amount",
          "type": "uint256"
        }
      ],
      "name": "FxDepositMintableERC1155",
      "type": "event"
    },
    {
      "anonymous": false,
      "inputs": [
        {
          "indexed": true,
          "internalType": "address",
          "name": "rootToken",
          "type": "address"
        },
        {
          "indexed": true,
          "internalType": "address",
          "name": "childToken",
          "type": "address"
        },
        {
          "indexed": true,
          "internalType": "address",
          "name": "userAddress",
          "type": "address"
        },
        {
          "indexed": false,
          "internalType": "uint256[]",
          "name": "ids",
          "type": "uint256[]"
        },
        {
          "indexed": false,
          "internalType": "uint256[]",
          "name": "amounts",
          "type": "uint256[]"
        }
      ],
      "name": "FxWithdrawBatchMintableERC1155",
      "type": "event"
    },
    {
      "anonymous": false,
      "inputs": [
        {
          "indexed": true,
          "internalType": "address",
          "name": "rootToken",
          "type": "address"
        },
        {
          "indexed": true,
          "internalType": "address",
          "name": "childToken",
          "type": "address"
        },
        {
          "indexed": true,
          "internalType": "address",
          "name": "userAddress",
          "type": "address"
        },
        {
          "indexed": false,
          "internalType": "uint256",
          "name": "id",
          "type": "uint256"
        },
        {
          "indexed": false,
          "internalType": "uint256",
          "name": "amount",
          "type": "uint256"
        }
      ],
      "name": "FxWithdrawMintableERC1155",
      "type": "event"
    },
    {
      "anonymous": false,
      "inputs": [
        {
          "indexed": true,
          "internalType": "address",
          "name": "rootToken",
          "type": "address"
        },
        {
          "indexed": true,
          "internalType": "address",
          "name": "childToken",
          "type": "address"
        }
      ],
      "name": "TokenMappedMintableERC1155",
      "type": "event"
    },
    {
      "inputs": [],
      "name": "DEPOSIT",
      "outputs": [
        {
          "internalType": "bytes32",
          "name": "",
          "type": "bytes32"
        }
      ],
      "stateMutability": "view",
      "type": "function"
    },
    {
      "inputs": [],
      "name": "DEPOSIT_BATCH",
      "outputs": [
        {
          "internalType": "bytes32",
          "name": "",
          "type": "bytes32"
        }
      ],
      "stateMutability": "view",
      "type": "function"
    },
    {
      "inputs": [],
      "name": "SEND_MESSAGE_EVENT_SIG",
      "outputs": [
        {
          "internalType": "bytes32",
          "name": "",
          "type": "bytes32"
        }
      ],
      "stateMutability": "view",
      "type": "function"
    },
    {
      "inputs": [],
      "name": "WITHDRAW",
      "outputs": [
        {
          "internalType": "bytes32",
          "name": "",
          "type": "bytes32"
        }
      ],
      "stateMutability": "view",
      "type": "function"
    },
    {
      "inputs": [],
      "name": "WITHDRAW_BATCH",
      "outputs": [
        {
          "internalType": "bytes32",
          "name": "",
          "type": "bytes32"
        }
      ],
      "stateMutability": "view",
      "type": "function"
    },
    {
      "inputs": [],
      "name": "checkpointManager",
      "outputs": [
        {
          "internalType": "contract ICheckpointManager",
          "name": "",
          "type": "address"
        }
      ],
      "stateMutability": "view",
      "type": "function"
    },
    {
      "inputs": [
        {
          "internalType": "bytes32",
          "name": "salt",
          "type": "bytes32"
        },
        {
          "internalType": "bytes32",
          "name": "bytecodeHash",
          "type": "bytes32"
        },
        {
          "internalType": "address",
          "name": "deployer",
          "type": "address"
        }
      ],
      "name": "computedCreate2Address",
      "outputs": [
        {
          "internalType": "address",
          "name": "",
          "type": "address"
        }
      ],
      "stateMutability": "pure",
      "type": "function"
    },
    {
      "inputs": [
        {
          "internalType": "address",
          "name": "rootToken",
          "type": "address"
        },
        {
          "internalType": "address",
          "name": "user",
          "type": "address"
        },
        {
          "internalType": "uint256",
          "name": "id",
          "type": "uint256"
        },
        {
          "internalType": "uint256",
          "name": "amount",
          "type": "uint256"
        },
        {
          "internalType": "bytes",
          "name": "data",
          "type": "bytes"
        }
      ],
      "name": "deposit",
      "outputs": [],
      "stateMutability": "nonpayable",
      "type": "function"
    },
    {
      "inputs": [
        {
          "internalType": "address",
          "name": "rootToken",
          "type": "address"
        },
        {
          "internalType": "address",
          "name": "user",
          "type": "address"
        },
        {
          "internalType": "uint256[]",
          "name": "ids",
          "type": "uint256[]"
        },
        {
          "internalType": "uint256[]",
          "name": "amounts",
          "type": "uint256[]"
        },
        {
          "internalType": "bytes",
          "name": "data",
          "type": "bytes"
        }
      ],
      "name": "depositBatch",
      "outputs": [],
      "stateMutability": "nonpayable",
      "type": "function"
    },
    {
      "inputs": [],
      "name": "fxChildTunnel",
      "outputs": [
        {
          "internalType": "address",
          "name": "",
          "type": "address"
        }
      ],
      "stateMutability": "view",
      "type": "function"
    },
    {
      "inputs": [],
      "name": "fxRoot",
      "outputs": [
        {
          "internalType": "contract IFxStateSender",
          "name": "",
          "type": "address"
        }
      ],
      "stateMutability": "view",
      "type": "function"
    },
    {
      "inputs": [
        {
          "internalType": "address",
          "name": "",
          "type": "address"
        },
        {
          "internalType": "address",
          "name": "",
          "type": "address"
        },
        {
          "internalType": "uint256[]",
          "name": "",
          "type": "uint256[]"
        },
        {
          "internalType": "uint256[]",
          "name": "",
          "type": "uint256[]"
        },
        {
          "internalType": "bytes",
          "name": "",
          "type": "bytes"
        }
      ],
      "name": "onERC1155BatchReceived",
      "outputs": [
        {
          "internalType": "bytes4",
          "name": "",
          "type": "bytes4"
        }
      ],
      "stateMutability": "nonpayable",
      "type": "function"
    },
    {
      "inputs": [
        {
          "internalType": "address",
          "name": "",
          "type": "address"
        },
        {
          "internalType": "address",
          "name": "",
          "type": "address"
        },
        {
          "internalType": "uint256",
          "name": "",
          "type": "uint256"
        },
        {
          "internalType": "uint256",
          "name": "",
          "type": "uint256"
        },
        {
          "internalType": "bytes",
          "name": "",
          "type": "bytes"
        }
      ],
      "name": "onERC1155Received",
      "outputs": [
        {
          "internalType": "bytes4",
          "name": "",
          "type": "bytes4"
        }
      ],
      "stateMutability": "nonpayable",
      "type": "function"
    },
    {
      "inputs": [
        {
          "internalType": "bytes32",
          "name": "",
          "type": "bytes32"
        }
      ],
      "name": "processedExits",
      "outputs": [
        {
          "internalType": "bool",
          "name": "",
          "type": "bool"
        }
      ],
      "stateMutability": "view",
      "type": "function"
    },
    {
      "inputs": [
        {
          "internalType": "bytes",
          "name": "inputData",
          "type": "bytes"
        }
      ],
      "name": "receiveMessage",
      "outputs": [],
      "stateMutability": "nonpayable",
      "type": "function"
    },
    {
      "inputs": [
        {
          "internalType": "address",
          "name": "",
          "type": "address"
        }
      ],
      "name": "rootToChildTokens",
      "outputs": [
        {
          "internalType": "address",
          "name": "",
          "type": "address"
        }
      ],
      "stateMutability": "view",
      "type": "function"
    },
    {
      "inputs": [],
      "name": "rootTokenTemplate",
      "outputs": [
        {
          "internalType": "address",
          "name": "",
          "type": "address"
        }
      ],
      "stateMutability": "view",
      "type": "function"
    },
    {
      "inputs": [
        {
          "internalType": "address",
          "name": "_fxChildTunnel",
          "type": "address"
        }
      ],
      "name": "setFxChildTunnel",
      "outputs": [],
      "stateMutability": "nonpayable",
      "type": "function"
    },
    {
      "inputs": [
        {
          "internalType": "bytes4",
          "name": "interfaceId",
          "type": "bytes4"
        }
      ],
      "name": "supportsInterface",
      "outputs": [
        {
          "internalType": "bool",
          "name": "",
          "type": "bool"
        }
      ],
      "stateMutability": "view",
      "type": "function"
    }
  ],
  "transactionHash": "0xefc8493cbbf6bee44421764cf0a44e01b8eba6f7c585432e0d0fb511ab8cc96b",
  "args": [
    "0x2890bA17EfE978480615e330ecB65333b880928e",
    "0x3d1d3E34f7fB6D26245E6640E1c50710eFFf15bA",
    "0x83E45874538bEd57BAc3f60312699258634D551c"
  ],
  "numDeployments": 1,
  "solcInputHash": "de36b5ea8aeddaa35f5e837a479ee1b6",
  "bytecode": "0x60a06040523480156200001157600080fd5b506040516200524b3803806200524b833981810160405281019062000037919062000113565b828281600160006101000a81548173ffffffffffffffffffffffffffffffffffffffff021916908373ffffffffffffffffffffffffffffffffffffffff160217905550806000806101000a81548173ffffffffffffffffffffffffffffffffffffffff021916908373ffffffffffffffffffffffffffffffffffffffff16021790555050508073ffffffffffffffffffffffffffffffffffffffff1660808173ffffffffffffffffffffffffffffffffffffffff1660601b81525050505050620001c2565b6000815190506200010d81620001a8565b92915050565b6000806000606084860312156200012f576200012e620001a3565b5b60006200013f86828701620000fc565b93505060206200015286828701620000fc565b92505060406200016586828701620000fc565b9150509250925092565b60006200017c8262000183565b9050919050565b600073ffffffffffffffffffffffffffffffffffffffff82169050919050565b600080fd5b620001b3816200016f565b8114620001bf57600080fd5b50565b60805160601c615063620001e86000396000818161048b01526129cf01526150636000f3fe608060405234801561001057600080fd5b50600436106101215760003560e01c8063aea4e49e116100ad578063d81c8e5211610071578063d81c8e5214610320578063d911b1ac1461033e578063de9b771f1461035a578063f23a6e6114610378578063f953cec7146103a857610121565b8063aea4e49e1461027a578063b2edfcd214610296578063b324d3ed146102b4578063bc197c81146102d2578063c0857ba01461030257610121565b8063607f2d42116100f4578063607f2d42146101b057806371b8dc69146101e05780637337957f146101fc57806388e700681461022c578063972c49281461025c57610121565b806301ffc9a7146101265780630e387de61461015657806316ba7197146101745780634ddf625614610192575b600080fd5b610140600480360381019061013b91906138e0565b6103c4565b60405161014d919061428e565b60405180910390f35b61015e61043e565b60405161016b91906142a9565b60405180910390f35b61017c610465565b60405161018991906142a9565b60405180910390f35b61019a610489565b6040516101a79190613ed5565b60405180910390f35b6101ca60048036038101906101c59190613789565b6104ad565b6040516101d7919061428e565b60405180910390f35b6101fa60048036038101906101f59190613658565b6104cd565b005b610216600480360381019061021191906137b6565b61070c565b6040516102239190613ed5565b60405180910390f35b61024660048036038101906102419190613294565b610750565b6040516102539190613ed5565b60405180910390f35b610264610783565b6040516102719190613ed5565b60405180910390f35b610294600480360381019061028f9190613294565b6107a9565b005b61029e61087e565b6040516102ab91906142a9565b60405180910390f35b6102bc6108a2565b6040516102c991906142a9565b60405180910390f35b6102ec60048036038101906102e79190613589565b6108c6565b6040516102f991906142f4565b60405180910390f35b61030a6108db565b604051610317919061430f565b60405180910390f35b610328610901565b60405161033591906142a9565b60405180910390f35b610358600480360381019061035391906134ad565b610925565b005b610362610b5b565b60405161036f919061432a565b60405180910390f35b610392600480360381019061038d91906136f2565b610b7f565b60405161039f91906142f4565b60405180910390f35b6103c260048036038101906103bd919061390d565b610b94565b005b60007f4e2312e0000000000000000000000000000000000000000000000000000000007bffffffffffffffffffffffffffffffffffffffffffffffffffffffff1916827bffffffffffffffffffffffffffffffffffffffffffffffffffffffff19161480610437575061043682610bae565b5b9050919050565b7f8c5261668696ce22758910d05bab8f186d6eb247ceac2af2e82c7dc17669b03660001b81565b7f7a8dc26796a1e50e6e190b70259f58f6a4edd5b22280ceecc82b687b8e98286981565b7f000000000000000000000000000000000000000000000000000000000000000081565b60036020528060005260406000206000915054906101000a900460ff1681565b600073ffffffffffffffffffffffffffffffffffffffff16600460008873ffffffffffffffffffffffffffffffffffffffff1673ffffffffffffffffffffffffffffffffffffffff16815260200190815260200160002060009054906101000a900473ffffffffffffffffffffffffffffffffffffffff1673ffffffffffffffffffffffffffffffffffffffff16141561059c576040517f08c379a0000000000000000000000000000000000000000000000000000000008152600401610593906143a5565b60405180910390fd5b8573ffffffffffffffffffffffffffffffffffffffff1663f242432a3330878787876040518763ffffffff1660e01b81526004016105df969594939291906140ea565b600060405180830381600087803b1580156105f957600080fd5b505af115801561060d573d6000803e3d6000fd5b505050506106867f87a7811f4bfedea3d341ad165680ae306b01aaeacc205d227629cf157dd9f821873388888888886040516020016106529796959493929190613f6c565b6040516020818303038152906040526040516020016106729291906142c4565b604051602081830303815290604052610c18565b8473ffffffffffffffffffffffffffffffffffffffff163373ffffffffffffffffffffffffffffffffffffffff168773ffffffffffffffffffffffffffffffffffffffff167fd8c1520fcddfeaf2a483cc53b571a2ff16d3fb642f7c64fa9ac200c7e3c9d45587876040516106fc9291906144e0565b60405180910390a4505050505050565b60008060ff60f81b83868660405160200161072a9493929190613dd4565b6040516020818303038152906040528051906020012090508060001c9150509392505050565b60046020528060005260406000206000915054906101000a900473ffffffffffffffffffffffffffffffffffffffff1681565b600260009054906101000a900473ffffffffffffffffffffffffffffffffffffffff1681565b600073ffffffffffffffffffffffffffffffffffffffff16600260009054906101000a900473ffffffffffffffffffffffffffffffffffffffff1673ffffffffffffffffffffffffffffffffffffffff161461083a576040517f08c379a000000000000000000000000000000000000000000000000000000000815260040161083190614345565b60405180910390fd5b80600260006101000a81548173ffffffffffffffffffffffffffffffffffffffff021916908373ffffffffffffffffffffffffffffffffffffffff16021790555050565b7faf50c8eab81226bc79eee3a10e3fe25db1a2be7241130e392b0675df839b6d1881565b7f5fb452c5a8f2b7c7ef2984e2f1063c7ee9b80b110cdc98ccb98f6654e10b5ed281565b600063bc197c8160e01b905095945050505050565b600160009054906101000a900473ffffffffffffffffffffffffffffffffffffffff1681565b7f87a7811f4bfedea3d341ad165680ae306b01aaeacc205d227629cf157dd9f82181565b600073ffffffffffffffffffffffffffffffffffffffff16600460008a73ffffffffffffffffffffffffffffffffffffffff1673ffffffffffffffffffffffffffffffffffffffff16815260200190815260200160002060009054906101000a900473ffffffffffffffffffffffffffffffffffffffff1673ffffffffffffffffffffffffffffffffffffffff1614156109f4576040517f08c379a00000000000000000000000000000000000000000000000000000000081526004016109eb906143a5565b60405180910390fd5b8773ffffffffffffffffffffffffffffffffffffffff16632eb2c2d633308989898989896040518963ffffffff1660e01b8152600401610a3b989796959493929190613fd6565b600060405180830381600087803b158015610a5557600080fd5b505af1158015610a69573d6000803e3d6000fd5b50505050610ae67faf50c8eab81226bc79eee3a10e3fe25db1a2be7241130e392b0675df839b6d1889338a8a8a8a8a8a8a604051602001610ab299989796959493929190613ef0565b604051602081830303815290604052604051602001610ad29291906142c4565b604051602081830303815290604052610c18565b8673ffffffffffffffffffffffffffffffffffffffff168873ffffffffffffffffffffffffffffffffffffffff167f69656dacfd66b02e2b1e7661132c693f3db232871ad46444046705dcc09e429d88888888604051610b49949392919061421c565b60405180910390a35050505050505050565b60008054906101000a900473ffffffffffffffffffffffffffffffffffffffff1681565b600063f23a6e6160e01b905095945050505050565b6000610b9f82610cca565b9050610baa81610fcf565b5050565b60007f01ffc9a7000000000000000000000000000000000000000000000000000000007bffffffffffffffffffffffffffffffffffffffffffffffffffffffff1916827bffffffffffffffffffffffffffffffffffffffffffffffffffffffff1916149050919050565b60008054906101000a900473ffffffffffffffffffffffffffffffffffffffff1673ffffffffffffffffffffffffffffffffffffffff1663b4720477600260009054906101000a900473ffffffffffffffffffffffffffffffffffffffff16836040518363ffffffff1660e01b8152600401610c959291906141a0565b600060405180830381600087803b158015610caf57600080fd5b505af1158015610cc3573d6000803e3d6000fd5b5050505050565b60606000610cd783611097565b90506000610ce4826110cb565b90506000610cf1836110fc565b9050600081610cff8461112d565b610d0886611343565b604051602001610d1a93929190613e4e565b604051602081830303815290604052805190602001209050600015156003600083815260200190815260200160002060009054906101000a900460ff16151514610d99576040517f08c379a0000000000000000000000000000000000000000000000000000000008152600401610d9090614385565b60405180910390fd5b60016003600083815260200190815260200160002060006101000a81548160ff0219169083151502179055506000610dd085611374565b90506000610ddd82611499565b9050610de881611510565b73ffffffffffffffffffffffffffffffffffffffff16600260009054906101000a900473ffffffffffffffffffffffffffffffffffffffff1673ffffffffffffffffffffffffffffffffffffffff1614610e77576040517f08c379a0000000000000000000000000000000000000000000000000000000008152600401610e6e906144a5565b60405180910390fd5b6000610e8287611541565b9050610ea0610e9084611575565b87610e9a8a611583565b846115b4565b610edf576040517f08c379a0000000000000000000000000000000000000000000000000000000008152600401610ed690614365565b60405180910390fd5b610f0d85610eec896118ba565b610ef58a6118eb565b84610eff8c61191f565b610f088d611950565b611981565b506000610f1983611ad7565b90507f8c5261668696ce22758910d05bab8f186d6eb247ceac2af2e82c7dc17669b03660001b610f5b610f56600084611b1c90919063ffffffff16565b611b4b565b60001b14610f9e576040517f08c379a0000000000000000000000000000000000000000000000000000000008152600401610f9590614445565b60405180910390fd5b6000610fa984611bce565b806020019051810190610fbc9190613956565b9050809950505050505050505050919050565b60008082806020019051810190610fe69190613809565b915091507f7a8dc26796a1e50e6e190b70259f58f6a4edd5b22280ceecc82b687b8e9828698214156110205761101b81611bff565b611092565b7f5fb452c5a8f2b7c7ef2984e2f1063c7ee9b80b110cdc98ccb98f6654e10b5ed28214156110565761105181611f16565b611091565b6040517f08c379a000000000000000000000000000000000000000000000000000000000815260040161108890614465565b60405180910390fd5b5b505050565b61109f612e33565b60006110b26110ad846121bc565b6121ea565b9050604051806020016040528082815250915050919050565b60606110f582600001516008815181106110e8576110e7614bf2565b5b60200260200101516122ff565b9050919050565b6000611126826000015160028151811061111957611118614bf2565b5b6020026020010151611b4b565b9050919050565b6060600060405180602001604052806000815250905060008351111561133a5760008061115b6000866123b6565b60f81c905060018160ff161480611175575060038160ff16145b1561123f5760016002865161118a9190614861565b61119491906148bb565b67ffffffffffffffff8111156111ad576111ac614c21565b5b6040519080825280601f01601f1916602001820160405280156111df5781602001600182028036833780820191505090505b50925060006111ef6001876123b6565b9050808460008151811061120657611205614bf2565b5b60200101907effffffffffffffffffffffffffffffffffffffffffffffffffffffffffffff1916908160001a90535060019250506112ab565b600280865161124e9190614861565b61125891906148bb565b67ffffffffffffffff81111561127157611270614c21565b5b6040519080825280601f01601f1916602001820160405280156112a35781602001600182028036833780820191505090505b509250600091505b60008260ff1690505b8351811015611336576112e160028460ff16836112d191906148bb565b6112db9190614638565b876123b6565b8482815181106112f4576112f3614bf2565b5b60200101907effffffffffffffffffffffffffffffffffffffffffffffffffffffffffffff1916908160001a905350808061132e90614aa7565b9150506112b4565b5050505b80915050919050565b600061136d82600001516009815181106113605761135f614bf2565b5b6020026020010151611b4b565b9050919050565b61137c612e46565b6113a4826000015160068151811061139757611396614bf2565b5b60200260200101516122ff565b816020018190525060006113bb82602001516121bc565b90506113c68161244e565b156113e1576113d4816121ea565b8260000181905250611481565b6000826020015190506000600182516113fa91906148bb565b67ffffffffffffffff81111561141357611412614c21565b5b6040519080825280601f01601f1916602001820160405280156114455781602001600182028036833780820191505090505b5090506000808360210191508260200190506114638282855161249c565b61147461146f846121bc565b6121ea565b8660000181905250505050505b61148a83611343565b82604001818152505050919050565b6114a1612e67565b60006114cb83600001516003815181106114be576114bd614bf2565b5b60200260200101516121ea565b8360400151815181106114e1576114e0614bf2565b5b602002602001015190506040518060400160405280828152602001611505836121ea565b815250915050919050565b600061153a826020015160008151811061152d5761152c614bf2565b5b6020026020010151612539565b9050919050565b600061156b826000015160058151811061155e5761155d614bf2565b5b6020026020010151611b4b565b60001b9050919050565b606081602001519050919050565b60606115ad82600001516007815181106115a05761159f614bf2565b5b60200260200101516122ff565b9050919050565b6000806115c0846121bc565b905060006115cd826121ea565b905060608060008690506000806115e38b61112d565b90506000815114156115ff5760009750505050505050506118b2565b60005b86518110156118a9578151831115611625576000985050505050505050506118b2565b61164887828151811061163b5761163a614bf2565b5b602002602001015161255c565b955085805190602001208414611669576000985050505050505050506118b2565b61168c87828151811061167f5761167e614bf2565b5b60200260200101516121ea565b945060118551141561177f5781518314156116fc578c805190602001206116cd866010815181106116c0576116bf614bf2565b5b60200260200101516122ff565b8051906020012014156116eb576001985050505050505050506118b2565b6000985050505050505050506118b2565b600082848151811061171157611710614bf2565b5b602001015160f81c60f81b60f81c905060108160ff16111561173f57600099505050505050505050506118b2565b611765868260ff168151811061175857611757614bf2565b5b60200260200101516125ec565b60001b94506001846117779190614638565b935050611896565b6002855114156118845760006117b96117b2876000815181106117a5576117a4614bf2565b5b60200260200101516122ff565b8486612623565b9050825181856117c99190614638565b141561182c578d805190602001206117fb876001815181106117ee576117ed614bf2565b5b60200260200101516122ff565b80519060200120141561181a57600199505050505050505050506118b2565b600099505050505050505050506118b2565b600081141561184757600099505050505050505050506118b2565b80846118539190614638565b93506118798660018151811061186c5761186b614bf2565b5b60200260200101516125ec565b60001b945050611895565b6000985050505050505050506118b2565b5b80806118a190614aa7565b915050611602565b50505050505050505b949350505050565b60006118e482600001516003815181106118d7576118d6614bf2565b5b6020026020010151611b4b565b9050919050565b6000611915826000015160048151811061190857611907614bf2565b5b6020026020010151611b4b565b60001b9050919050565b6000611949826000015160008151811061193c5761193b614bf2565b5b6020026020010151611b4b565b9050919050565b606061197a826000015160018151811061196d5761196c614bf2565b5b60200260200101516122ff565b9050919050565b600080600080600160009054906101000a900473ffffffffffffffffffffffffffffffffffffffff1673ffffffffffffffffffffffffffffffffffffffff166341539d4a876040518263ffffffff1660e01b81526004016119e291906144c5565b60a06040518083038186803b1580156119fa57600080fd5b505afa158015611a0e573d6000803e3d6000fd5b505050506040513d601f19601f82011682018060405250810190611a329190613865565b5093505092509250611a88828b611a4991906148bb565b84878d8d8d8d604051602001611a629493929190613e87565b60405160208183030381529060405280519060200120612759909392919063ffffffff16565b611ac7576040517f08c379a0000000000000000000000000000000000000000000000000000000008152600401611abe90614405565b60405180910390fd5b8093505050509695505050505050565b611adf612e87565b6040518060200160405280611b128460200151600181518110611b0557611b04614bf2565b5b60200260200101516121ea565b8152509050919050565b611b24612e9a565b82600001518281518110611b3b57611b3a614bf2565b5b6020026020010151905092915050565b6000808260000151118015611b6557506021826000015111155b611b6e57600080fd5b6000611b7d83602001516128ca565b90506000818460000151611b9191906148bb565b9050600080838660200151611ba69190614638565b9050805191506020831015611bc257826020036101000a820491505b81945050505050919050565b6060611bf88260200151600281518110611beb57611bea614bf2565b5b60200260200101516122ff565b9050919050565b600080600080600080600087806020019051810190611c1e91906133d3565b9650965096509650965096509650611c3587612989565b158015611ccd5750600073ffffffffffffffffffffffffffffffffffffffff16600460008973ffffffffffffffffffffffffffffffffffffffff1673ffffffffffffffffffffffffffffffffffffffff16815260200190815260200160002060009054906101000a900473ffffffffffffffffffffffffffffffffffffffff1673ffffffffffffffffffffffffffffffffffffffff16145b15611cdd57611cdc868261299c565b5b8573ffffffffffffffffffffffffffffffffffffffff16600460008973ffffffffffffffffffffffffffffffffffffffff1673ffffffffffffffffffffffffffffffffffffffff16815260200190815260200160002060009054906101000a900473ffffffffffffffffffffffffffffffffffffffff1673ffffffffffffffffffffffffffffffffffffffff1614611daa576040517f08c379a0000000000000000000000000000000000000000000000000000000008152600401611da190614425565b60405180910390fd5b8673ffffffffffffffffffffffffffffffffffffffff1663731133e9308686866040518563ffffffff1660e01b8152600401611de994939291906141d0565b600060405180830381600087803b158015611e0357600080fd5b505af1158015611e17573d6000803e3d6000fd5b505050508673ffffffffffffffffffffffffffffffffffffffff1663f242432a30878787876040518663ffffffff1660e01b8152600401611e5c959493929190614146565b600060405180830381600087803b158015611e7657600080fd5b505af1158015611e8a573d6000803e3d6000fd5b505050508473ffffffffffffffffffffffffffffffffffffffff168673ffffffffffffffffffffffffffffffffffffffff168873ffffffffffffffffffffffffffffffffffffffff167f6b6c02c8562a317842f2ed9df3f7c5c78b5e5bfc8f25c31d5f40a8f0abc4f57c8787604051611f049291906144e0565b60405180910390a45050505050505050565b600080600080600080600087806020019051810190611f3591906132c1565b9650965096509650965096509650611f4c87612989565b158015611fe45750600073ffffffffffffffffffffffffffffffffffffffff16600460008973ffffffffffffffffffffffffffffffffffffffff1673ffffffffffffffffffffffffffffffffffffffff16815260200190815260200160002060009054906101000a900473ffffffffffffffffffffffffffffffffffffffff1673ffffffffffffffffffffffffffffffffffffffff16145b15611ff457611ff3868261299c565b5b8573ffffffffffffffffffffffffffffffffffffffff16600460008973ffffffffffffffffffffffffffffffffffffffff1673ffffffffffffffffffffffffffffffffffffffff16815260200190815260200160002060009054906101000a900473ffffffffffffffffffffffffffffffffffffffff1673ffffffffffffffffffffffffffffffffffffffff16146120c1576040517f08c379a00000000000000000000000000000000000000000000000000000000081526004016120b890614425565b60405180910390fd5b8673ffffffffffffffffffffffffffffffffffffffff16632eb2c2d630878787876040518663ffffffff1660e01b8152600401612102959493929190614044565b600060405180830381600087803b15801561211c57600080fd5b505af1158015612130573d6000803e3d6000fd5b505050508473ffffffffffffffffffffffffffffffffffffffff168673ffffffffffffffffffffffffffffffffffffffff168873ffffffffffffffffffffffffffffffffffffffff167fb5e92c41ab5daf76e6f37941f397924c5fd612c40bb87c21c6b162c9a9db65c287876040516121aa929190614257565b60405180910390a45050505050505050565b6121c4612e9a565b600060208301905060405180604001604052808451815260200182815250915050919050565b60606121f58261244e565b6121fe57600080fd5b600061220983612b42565b905060008167ffffffffffffffff81111561222757612226614c21565b5b60405190808252806020026020018201604052801561226057816020015b61224d612e9a565b8152602001906001900390816122455790505b509050600061227285602001516128ca565b85602001516122819190614638565b9050600080600090505b848110156122f25761229c83612bd0565b91506040518060400160405280838152602001848152508482815181106122c6576122c5614bf2565b5b602002602001018190525081836122dd9190614638565b925080806122ea90614aa7565b91505061228b565b5082945050505050919050565b6060600082600001511161231257600080fd5b600061232183602001516128ca565b9050600081846000015161233591906148bb565b905060008167ffffffffffffffff81111561235357612352614c21565b5b6040519080825280601f01601f1916602001820160405280156123855781602001600182028036833780820191505090505b50905060008160200190506123aa8487602001516123a39190614638565b8285612cac565b81945050505050919050565b6000806002846123c69190614b32565b14612409576010826002856123db919061468e565b815181106123ec576123eb614bf2565b5b602001015160f81c60f81b60f81c6124049190614b63565b612443565b601082600285612419919061468e565b8151811061242a57612429614bf2565b5b602001015160f81c60f81b60f81c61244291906146bf565b5b60f81b905092915050565b600080826000015114156124655760009050612497565b60008083602001519050805160001a915060c060ff168260ff16101561249057600092505050612497565b6001925050505b919050565b60008114156124aa57612534565b5b602060ff1681106124f55782518252602060ff16836124ca9190614638565b9250602060ff16826124dc9190614638565b9150602060ff16816124ee91906148bb565b90506124ab565b6000600182602060ff1661250991906148bb565b6101006125169190614743565b61252091906148bb565b905080198451168184511681811785525050505b505050565b6000601582600001511461254c57600080fd5b61255582611b4b565b9050919050565b60606000826000015167ffffffffffffffff81111561257e5761257d614c21565b5b6040519080825280601f01601f1916602001820160405280156125b05781602001600182028036833780820191505090505b5090506000815114156125c657809150506125e7565b60008160200190506125e18460200151828660000151612cac565b81925050505b919050565b600060218260000151146125ff57600080fd5b600080600184602001516126139190614638565b9050805191508192505050919050565b6000806000905060006126358661112d565b90506000815167ffffffffffffffff81111561265457612653614c21565b5b6040519080825280601f01601f1916602001820160405280156126865781602001600182028036833780820191505090505b50905060008590505b82518661269c9190614638565b8110156127275760008782815181106126b8576126b7614bf2565b5b602001015160f81c60f81b9050808388846126d391906148bb565b815181106126e4576126e3614bf2565b5b60200101907effffffffffffffffffffffffffffffffffffffffffffffffffffffffffffff1916908160001a90535050808061271f90614aa7565b91505061268f565b50808051906020012082805190602001201415612747578151925061274c565b600092505b8293505050509392505050565b6000806020835161276a9190614b32565b146127aa576040517f08c379a00000000000000000000000000000000000000000000000000000000081526004016127a1906143c5565b60405180910390fd5b6000602083516127ba919061468e565b90508060026127c99190614743565b851061280a576040517f08c379a0000000000000000000000000000000000000000000000000000000008152600401612801906143e5565b60405180910390fd5b6000808790506000602090505b855181116128b95780860151925060006002896128349190614b32565b141561286a57818360405160200161284d929190613e22565b604051602081830303815290604052805190602001209150612896565b828260405160200161287d929190613e22565b6040516020818303038152906040528051906020012091505b6002886128a3919061468e565b97506020816128b29190614638565b9050612817565b508581149350505050949350505050565b600080825160001a9050608060ff168110156128ea576000915050612984565b60b860ff1681108061290f575060c060ff16811015801561290e575060f860ff1681105b5b1561291e576001915050612984565b60c060ff168110156129595760018060b861293991906148ef565b60ff168261294791906148bb565b6129519190614638565b915050612984565b60018060f861296891906148ef565b60ff168261297691906148bb565b6129809190614638565b9150505b919050565b600080823b905060008111915050919050565b6000826040516020016129af9190613db9565b60405160208183030381529060405280519060200120905060006129f3827f0000000000000000000000000000000000000000000000000000000000000000612d57565b90508073ffffffffffffffffffffffffffffffffffffffff16634571e3a63086866040518463ffffffff1660e01b8152600401612a32939291906140ac565b600060405180830381600087803b158015612a4c57600080fd5b505af1158015612a60573d6000803e3d6000fd5b5050505083600460008373ffffffffffffffffffffffffffffffffffffffff1673ffffffffffffffffffffffffffffffffffffffff16815260200190815260200160002060006101000a81548173ffffffffffffffffffffffffffffffffffffffff021916908373ffffffffffffffffffffffffffffffffffffffff1602179055508373ffffffffffffffffffffffffffffffffffffffff168173ffffffffffffffffffffffffffffffffffffffff167fffdd2e5669ea7feac1b3b7348b3701816a979f65197b1dc83edb7c132151b96960405160405180910390a350505050565b60008082600001511415612b595760009050612bcb565b600080612b6984602001516128ca565b8460200151612b789190614638565b9050600084600001518560200151612b909190614638565b90505b80821015612bc457612ba482612bd0565b82612baf9190614638565b91508280612bbc90614aa7565b935050612b93565b8293505050505b919050565b6000806000835160001a9050608060ff16811015612bf15760019150612ca2565b60b860ff16811015612c20576001608060ff1682612c0f91906148bb565b612c199190614638565b9150612ca1565b60c060ff16811015612c505760b78103600185019450806020036101000a85510460018201810193505050612ca0565b60f860ff16811015612c7f57600160c060ff1682612c6e91906148bb565b612c789190614638565b9150612c9f565b60f78103600185019450806020036101000a855104600182018101935050505b5b5b5b8192505050919050565b6000811415612cba57612d52565b5b602060ff168110612d055782518252602060ff1683612cda9190614638565b9250602060ff1682612cec9190614638565b9150602060ff1681612cfe91906148bb565b9050612cbb565b6000811415612d1357612d52565b6000600182602060ff16612d2791906148bb565b610100612d349190614743565b612d3e91906148bb565b905080198451168184511681811785525050505b505050565b6000808260601b90506040517f3d602d80600a3d3981f3363d3d373d3d3d363d7300000000000000000000000081528160148201527f5af43d82803e903d91602b57fd5bf300000000000000000000000000000000006028820152846037826000f5925050600073ffffffffffffffffffffffffffffffffffffffff168273ffffffffffffffffffffffffffffffffffffffff161415612e2c576040517f08c379a0000000000000000000000000000000000000000000000000000000008152600401612e2390614485565b60405180910390fd5b5092915050565b6040518060200160405280606081525090565b60405180606001604052806060815260200160608152602001600081525090565b6040518060400160405280612e7a612e9a565b8152602001606081525090565b6040518060200160405280606081525090565b604051806040016040528060008152602001600081525090565b6000612ec7612ec28461452e565b614509565b90508083825260208201905082856020860282011115612eea57612ee9614c5a565b5b60005b85811015612f1a5781612f00888261326a565b845260208401935060208301925050600181019050612eed565b5050509392505050565b6000612f37612f328461452e565b614509565b90508083825260208201905082856020860282011115612f5a57612f59614c5a565b5b60005b85811015612f8a5781612f70888261327f565b845260208401935060208301925050600181019050612f5d565b5050509392505050565b6000612fa7612fa28461455a565b614509565b905082815260208101848484011115612fc357612fc2614c5f565b5b612fce848285614a34565b509392505050565b6000612fe9612fe48461455a565b614509565b90508281526020810184848401111561300557613004614c5f565b5b613010848285614a43565b509392505050565b600061302b6130268461458b565b614509565b90508281526020810184848401111561304757613046614c5f565b5b613052848285614a43565b509392505050565b60008135905061306981614fba565b92915050565b60008151905061307e81614fba565b92915050565b60008151905061309381614fd1565b92915050565b60008083601f8401126130af576130ae614c55565b5b8235905067ffffffffffffffff8111156130cc576130cb614c50565b5b6020830191508360208202830111156130e8576130e7614c5a565b5b9250929050565b600082601f83011261310457613103614c55565b5b8135613114848260208601612eb4565b91505092915050565b600082601f83011261313257613131614c55565b5b8151613142848260208601612f24565b91505092915050565b60008135905061315a81614fe8565b92915050565b60008151905061316f81614fe8565b92915050565b60008135905061318481614fff565b92915050565b60008083601f8401126131a05761319f614c55565b5b8235905067ffffffffffffffff8111156131bd576131bc614c50565b5b6020830191508360018202830111156131d9576131d8614c5a565b5b9250929050565b600082601f8301126131f5576131f4614c55565b5b8135613205848260208601612f94565b91505092915050565b600082601f83011261322357613222614c55565b5b8151613233848260208601612fd6565b91505092915050565b600082601f83011261325157613250614c55565b5b8151613261848260208601613018565b91505092915050565b60008135905061327981615016565b92915050565b60008151905061328e81615016565b92915050565b6000602082840312156132aa576132a9614c6e565b5b60006132b88482850161305a565b91505092915050565b600080600080600080600060e0888a0312156132e0576132df614c6e565b5b60006132ee8a828b01613084565b97505060206132ff8a828b01613084565b96505060406133108a828b01613084565b955050606088015167ffffffffffffffff81111561333157613330614c64565b5b61333d8a828b0161311d565b945050608088015167ffffffffffffffff81111561335e5761335d614c64565b5b61336a8a828b0161311d565b93505060a088015167ffffffffffffffff81111561338b5761338a614c64565b5b6133978a828b0161320e565b92505060c088015167ffffffffffffffff8111156133b8576133b7614c64565b5b6133c48a828b0161323c565b91505092959891949750929550565b600080600080600080600060e0888a0312156133f2576133f1614c6e565b5b60006134008a828b01613084565b97505060206134118a828b01613084565b96505060406134228a828b01613084565b95505060606134338a828b0161327f565b94505060806134448a828b0161327f565b93505060a088015167ffffffffffffffff81111561346557613464614c64565b5b6134718a828b0161320e565b92505060c088015167ffffffffffffffff81111561349257613491614c64565b5b61349e8a828b0161323c565b91505092959891949750929550565b60008060008060008060008060a0898b0312156134cd576134cc614c6e565b5b60006134db8b828c0161305a565b98505060206134ec8b828c0161305a565b975050604089013567ffffffffffffffff81111561350d5761350c614c64565b5b6135198b828c01613099565b9650965050606089013567ffffffffffffffff81111561353c5761353b614c64565b5b6135488b828c01613099565b9450945050608089013567ffffffffffffffff81111561356b5761356a614c64565b5b6135778b828c0161318a565b92509250509295985092959890939650565b600080600080600060a086880312156135a5576135a4614c6e565b5b60006135b38882890161305a565b95505060206135c48882890161305a565b945050604086013567ffffffffffffffff8111156135e5576135e4614c64565b5b6135f1888289016130ef565b935050606086013567ffffffffffffffff81111561361257613611614c64565b5b61361e888289016130ef565b925050608086013567ffffffffffffffff81111561363f5761363e614c64565b5b61364b888289016131e0565b9150509295509295909350565b60008060008060008060a0878903121561367557613674614c6e565b5b600061368389828a0161305a565b965050602061369489828a0161305a565b95505060406136a589828a0161326a565b94505060606136b689828a0161326a565b935050608087013567ffffffffffffffff8111156136d7576136d6614c64565b5b6136e389828a0161318a565b92509250509295509295509295565b600080600080600060a0868803121561370e5761370d614c6e565b5b600061371c8882890161305a565b955050602061372d8882890161305a565b945050604061373e8882890161326a565b935050606061374f8882890161326a565b925050608086013567ffffffffffffffff8111156137705761376f614c64565b5b61377c888289016131e0565b9150509295509295909350565b60006020828403121561379f5761379e614c6e565b5b60006137ad8482850161314b565b91505092915050565b6000806000606084860312156137cf576137ce614c6e565b5b60006137dd8682870161314b565b93505060206137ee8682870161314b565b92505060406137ff8682870161305a565b9150509250925092565b600080604083850312156138205761381f614c6e565b5b600061382e85828601613160565b925050602083015167ffffffffffffffff81111561384f5761384e614c64565b5b61385b8582860161320e565b9150509250929050565b600080600080600060a0868803121561388157613880614c6e565b5b600061388f88828901613160565b95505060206138a08882890161327f565b94505060406138b18882890161327f565b93505060606138c28882890161327f565b92505060806138d38882890161306f565b9150509295509295909350565b6000602082840312156138f6576138f5614c6e565b5b600061390484828501613175565b91505092915050565b60006020828403121561392357613922614c6e565b5b600082013567ffffffffffffffff81111561394157613940614c64565b5b61394d848285016131e0565b91505092915050565b60006020828403121561396c5761396b614c6e565b5b600082015167ffffffffffffffff81111561398a57613989614c64565b5b6139968482850161320e565b91505092915050565b60006139ab8383613d84565b60208301905092915050565b6139c081614923565b82525050565b6139d76139d282614923565b614af0565b82525050565b60006139e983856145fa565b93507f07ffffffffffffffffffffffffffffffffffffffffffffffffffffffffffffff831115613a1c57613a1b614c69565b5b602083029250613a2d838584614a34565b82840190509392505050565b6000613a44826145cc565b613a4e81856145fa565b9350613a59836145bc565b8060005b83811015613a8a578151613a71888261399f565b9750613a7c836145ed565b925050600181019050613a5d565b5085935050505092915050565b613aa081614947565b82525050565b613ab7613ab282614953565b614b02565b82525050565b613ac68161497f565b82525050565b613add613ad88261497f565b614b0c565b82525050565b613aec81614989565b82525050565b6000613afe838561460b565b9350613b0b838584614a34565b613b1483614c73565b840190509392505050565b6000613b2a826145d7565b613b34818561460b565b9350613b44818560208601614a43565b613b4d81614c73565b840191505092915050565b6000613b63826145d7565b613b6d818561461c565b9350613b7d818560208601614a43565b80840191505092915050565b613b92816149ec565b82525050565b613ba1816149fe565b82525050565b6000613bb2826145e2565b613bbc8185614627565b9350613bcc818560208601614a43565b613bd581614c73565b840191505092915050565b6000613bed602a83614627565b9150613bf882614c9e565b604082019050919050565b6000613c10602383614627565b9150613c1b82614ced565b604082019050919050565b6000613c33602483614627565b9150613c3e82614d3c565b604082019050919050565b6000613c56602d83614627565b9150613c6182614d8b565b604082019050919050565b6000613c79601483614627565b9150613c8482614dda565b602082019050919050565b6000613c9c601583614627565b9150613ca782614e03565b602082019050919050565b6000613cbf601c83614627565b9150613cca82614e2c565b602082019050919050565b6000613ce2603483614627565b9150613ced82614e55565b604082019050919050565b6000613d05601f83614627565b9150613d1082614ea4565b602082019050919050565b6000613d28602e83614627565b9150613d3382614ecd565b604082019050919050565b6000613d4b602183614627565b9150613d5682614f1c565b604082019050919050565b6000613d6e602583614627565b9150613d7982614f6b565b604082019050919050565b613d8d816149d5565b82525050565b613d9c816149d5565b82525050565b613db3613dae826149d5565b614b28565b82525050565b6000613dc582846139c6565b60148201915081905092915050565b6000613de08287613aa6565b600182019150613df082866139c6565b601482019150613e008285613acc565b602082019150613e108284613acc565b60208201915081905095945050505050565b6000613e2e8285613acc565b602082019150613e3e8284613acc565b6020820191508190509392505050565b6000613e5a8286613da2565b602082019150613e6a8285613b58565b9150613e768284613da2565b602082019150819050949350505050565b6000613e938287613da2565b602082019150613ea38286613da2565b602082019150613eb38285613acc565b602082019150613ec38284613acc565b60208201915081905095945050505050565b6000602082019050613eea60008301846139b7565b92915050565b600060c082019050613f05600083018c6139b7565b613f12602083018b6139b7565b613f1f604083018a6139b7565b8181036060830152613f3281888a6139dd565b90508181036080830152613f478186886139dd565b905081810360a0830152613f5c818486613af2565b90509a9950505050505050505050565b600060c082019050613f81600083018a6139b7565b613f8e60208301896139b7565b613f9b60408301886139b7565b613fa86060830187613d93565b613fb56080830186613d93565b81810360a0830152613fc8818486613af2565b905098975050505050505050565b600060a082019050613feb600083018b6139b7565b613ff8602083018a6139b7565b818103604083015261400b81888a6139dd565b905081810360608301526140208186886139dd565b90508181036080830152614035818486613af2565b90509998505050505050505050565b600060a08201905061405960008301886139b7565b61406660208301876139b7565b81810360408301526140788186613a39565b9050818103606083015261408c8185613a39565b905081810360808301526140a08184613b1f565b90509695505050505050565b60006060820190506140c160008301866139b7565b6140ce60208301856139b7565b81810360408301526140e08184613ba7565b9050949350505050565b600060a0820190506140ff60008301896139b7565b61410c60208301886139b7565b6141196040830187613d93565b6141266060830186613d93565b8181036080830152614139818486613af2565b9050979650505050505050565b600060a08201905061415b60008301886139b7565b61416860208301876139b7565b6141756040830186613d93565b6141826060830185613d93565b81810360808301526141948184613b1f565b90509695505050505050565b60006040820190506141b560008301856139b7565b81810360208301526141c78184613b1f565b90509392505050565b60006080820190506141e560008301876139b7565b6141f26020830186613d93565b6141ff6040830185613d93565b81810360608301526142118184613b1f565b905095945050505050565b600060408201905081810360008301526142378186886139dd565b9050818103602083015261424c8184866139dd565b905095945050505050565b600060408201905081810360008301526142718185613a39565b905081810360208301526142858184613a39565b90509392505050565b60006020820190506142a36000830184613a97565b92915050565b60006020820190506142be6000830184613abd565b92915050565b60006040820190506142d96000830185613abd565b81810360208301526142eb8184613b1f565b90509392505050565b60006020820190506143096000830184613ae3565b92915050565b60006020820190506143246000830184613b89565b92915050565b600060208201905061433f6000830184613b98565b92915050565b6000602082019050818103600083015261435e81613be0565b9050919050565b6000602082019050818103600083015261437e81613c03565b9050919050565b6000602082019050818103600083015261439e81613c26565b9050919050565b600060208201905081810360008301526143be81613c49565b9050919050565b600060208201905081810360008301526143de81613c6c565b9050919050565b600060208201905081810360008301526143fe81613c8f565b9050919050565b6000602082019050818103600083015261441e81613cb2565b9050919050565b6000602082019050818103600083015261443e81613cd5565b9050919050565b6000602082019050818103600083015261445e81613cf8565b9050919050565b6000602082019050818103600083015261447e81613d1b565b9050919050565b6000602082019050818103600083015261449e81613d3e565b9050919050565b600060208201905081810360008301526144be81613d61565b9050919050565b60006020820190506144da6000830184613d93565b92915050565b60006040820190506144f56000830185613d93565b6145026020830184613d93565b9392505050565b6000614513614524565b905061451f8282614a76565b919050565b6000604051905090565b600067ffffffffffffffff82111561454957614548614c21565b5b602082029050602081019050919050565b600067ffffffffffffffff82111561457557614574614c21565b5b61457e82614c73565b9050602081019050919050565b600067ffffffffffffffff8211156145a6576145a5614c21565b5b6145af82614c73565b9050602081019050919050565b6000819050602082019050919050565b600081519050919050565b600081519050919050565b600081519050919050565b6000602082019050919050565b600082825260208201905092915050565b600082825260208201905092915050565b600081905092915050565b600082825260208201905092915050565b6000614643826149d5565b915061464e836149d5565b9250827fffffffffffffffffffffffffffffffffffffffffffffffffffffffffffffffff0382111561468357614682614b94565b5b828201905092915050565b6000614699826149d5565b91506146a4836149d5565b9250826146b4576146b3614bc3565b5b828204905092915050565b60006146ca826149df565b91506146d5836149df565b9250826146e5576146e4614bc3565b5b828204905092915050565b6000808291508390505b600185111561473a5780860481111561471657614715614b94565b5b60018516156147255780820291505b808102905061473385614c91565b94506146fa565b94509492505050565b600061474e826149d5565b9150614759836149d5565b92506147867fffffffffffffffffffffffffffffffffffffffffffffffffffffffffffffffff848461478e565b905092915050565b60008261479e576001905061485a565b816147ac576000905061485a565b81600181146147c257600281146147cc576147fb565b600191505061485a565b60ff8411156147de576147dd614b94565b5b8360020a9150848211156147f5576147f4614b94565b5b5061485a565b5060208310610133831016604e8410600b84101617156148305782820a90508381111561482b5761482a614b94565b5b61485a565b61483d84848460016146f0565b9250905081840481111561485457614853614b94565b5b81810290505b9392505050565b600061486c826149d5565b9150614877836149d5565b9250817fffffffffffffffffffffffffffffffffffffffffffffffffffffffffffffffff04831182151516156148b0576148af614b94565b5b828202905092915050565b60006148c6826149d5565b91506148d1836149d5565b9250828210156148e4576148e3614b94565b5b828203905092915050565b60006148fa826149df565b9150614905836149df565b92508282101561491857614917614b94565b5b828203905092915050565b600061492e826149b5565b9050919050565b6000614940826149b5565b9050919050565b60008115159050919050565b60007fff0000000000000000000000000000000000000000000000000000000000000082169050919050565b6000819050919050565b60007fffffffff0000000000000000000000000000000000000000000000000000000082169050919050565b600073ffffffffffffffffffffffffffffffffffffffff82169050919050565b6000819050919050565b600060ff82169050919050565b60006149f782614a10565b9050919050565b6000614a0982614a10565b9050919050565b6000614a1b82614a22565b9050919050565b6000614a2d826149b5565b9050919050565b82818337600083830152505050565b60005b83811015614a61578082015181840152602081019050614a46565b83811115614a70576000848401525b50505050565b614a7f82614c73565b810181811067ffffffffffffffff82111715614a9e57614a9d614c21565b5b80604052505050565b6000614ab2826149d5565b91507fffffffffffffffffffffffffffffffffffffffffffffffffffffffffffffffff821415614ae557614ae4614b94565b5b600182019050919050565b6000614afb82614b16565b9050919050565b6000819050919050565b6000819050919050565b6000614b2182614c84565b9050919050565b6000819050919050565b6000614b3d826149d5565b9150614b48836149d5565b925082614b5857614b57614bc3565b5b828206905092915050565b6000614b6e826149df565b9150614b79836149df565b925082614b8957614b88614bc3565b5b828206905092915050565b7f4e487b7100000000000000000000000000000000000000000000000000000000600052601160045260246000fd5b7f4e487b7100000000000000000000000000000000000000000000000000000000600052601260045260246000fd5b7f4e487b7100000000000000000000000000000000000000000000000000000000600052603260045260246000fd5b7f4e487b7100000000000000000000000000000000000000000000000000000000600052604160045260246000fd5b600080fd5b600080fd5b600080fd5b600080fd5b600080fd5b600080fd5b600080fd5b6000601f19601f8301169050919050565b60008160601b9050919050565b60008160011c9050919050565b7f467842617365526f6f7454756e6e656c3a204348494c445f54554e4e454c5f4160008201527f4c52454144595f53455400000000000000000000000000000000000000000000602082015250565b7f4678526f6f7454756e6e656c3a20494e56414c49445f524543454950545f505260008201527f4f4f460000000000000000000000000000000000000000000000000000000000602082015250565b7f4678526f6f7454756e6e656c3a20455849545f414c52454144595f50524f434560008201527f5353454400000000000000000000000000000000000000000000000000000000602082015250565b7f46784d696e7461626c6545524331313535526f6f7454756e6e656c3a204e4f5f60008201527f4d415050494e475f464f554e4400000000000000000000000000000000000000602082015250565b7f496e76616c69642070726f6f66206c656e677468000000000000000000000000600082015250565b7f4c65616620696e64657820697320746f6f206269670000000000000000000000600082015250565b7f4678526f6f7454756e6e656c3a20494e56414c49445f48454144455200000000600082015250565b7f46784d696e7461626c6545524331313535526f6f7454756e6e656c3a20494e5660008201527f414c49445f4d415050494e475f4f4e5f45584954000000000000000000000000602082015250565b7f4678526f6f7454756e6e656c3a20494e56414c49445f5349474e415455524500600082015250565b7f46784d696e7461626c6545524331313535526f6f7454756e6e656c3a20494e5660008201527f414c49445f53594e435f54595045000000000000000000000000000000000000602082015250565b7f437265617465323a204661696c6564206f6e206d696e696d616c206465706c6f60008201527f7900000000000000000000000000000000000000000000000000000000000000602082015250565b7f4678526f6f7454756e6e656c3a20494e56414c49445f46585f4348494c445f5460008201527f554e4e454c000000000000000000000000000000000000000000000000000000602082015250565b614fc381614923565b8114614fce57600080fd5b50565b614fda81614935565b8114614fe557600080fd5b50565b614ff18161497f565b8114614ffc57600080fd5b50565b61500881614989565b811461501357600080fd5b50565b61501f816149d5565b811461502a57600080fd5b5056fea2646970667358221220ea277b4eaad5d05f21b185a65fba3a74f541d02c07362cafa501da814a33861a64736f6c63430008070033",
  "devdoc": {
    "kind": "dev",
    "methods": {
      "receiveMessage(bytes)": {
        "details": "This function verifies if the transaction actually happened on child chain",
        "params": {
          "inputData": "RLP encoded data of the reference tx containing following list of fields  0 - headerNumber - Checkpoint header block number containing the reference tx  1 - blockProof - Proof that the block header (in the child chain) is a leaf in the submitted merkle root  2 - blockNumber - Block number containing the reference tx on child chain  3 - blockTime - Reference tx block time  4 - txRoot - Transactions root of block  5 - receiptRoot - Receipts root of block  6 - receipt - Receipt of the reference transaction  7 - receiptProof - Merkle proof of the reference receipt  8 - branchMask - 32 bits denoting the path of receipt in merkle tree  9 - receiptLogIndex - Log Index to read from the receipt"
        }
      },
      "supportsInterface(bytes4)": {
        "details": "See {IERC165-supportsInterface}."
      }
    },
    "version": 1
  },
  "userdoc": {
    "kind": "user",
    "methods": {
      "receiveMessage(bytes)": {
        "notice": "receive message from  L2 to L1, validated by proof"
      }
    },
    "version": 1
  },
  "storageLayout": {
    "storage": [
      {
        "astId": 136,
        "contract": "src/goerli/tunnels/FxMintableERC1155RootTunnel.sol:FxMintableERC1155RootTunnel",
        "label": "fxRoot",
        "offset": 0,
        "slot": "0",
        "type": "t_contract(IFxStateSender)86"
      },
      {
        "astId": 139,
        "contract": "src/goerli/tunnels/FxMintableERC1155RootTunnel.sol:FxMintableERC1155RootTunnel",
        "label": "checkpointManager",
        "offset": 0,
        "slot": "1",
        "type": "t_contract(ICheckpointManager)104"
      },
      {
        "astId": 141,
        "contract": "src/goerli/tunnels/FxMintableERC1155RootTunnel.sol:FxMintableERC1155RootTunnel",
        "label": "fxChildTunnel",
        "offset": 0,
        "slot": "2",
        "type": "t_address"
      },
      {
        "astId": 145,
        "contract": "src/goerli/tunnels/FxMintableERC1155RootTunnel.sol:FxMintableERC1155RootTunnel",
        "label": "processedExits",
        "offset": 0,
        "slot": "3",
        "type": "t_mapping(t_bytes32,t_bool)"
      },
      {
        "astId": 535,
        "contract": "src/goerli/tunnels/FxMintableERC1155RootTunnel.sol:FxMintableERC1155RootTunnel",
        "label": "rootToChildTokens",
        "offset": 0,
        "slot": "4",
        "type": "t_mapping(t_address,t_address)"
      }
    ],
    "types": {
      "t_address": {
        "encoding": "inplace",
        "label": "address",
        "numberOfBytes": "20"
      },
      "t_bool": {
        "encoding": "inplace",
        "label": "bool",
        "numberOfBytes": "1"
      },
      "t_bytes32": {
        "encoding": "inplace",
        "label": "bytes32",
        "numberOfBytes": "32"
      },
      "t_contract(ICheckpointManager)104": {
        "encoding": "inplace",
        "label": "contract ICheckpointManager",
        "numberOfBytes": "20"
      },
      "t_contract(IFxStateSender)86": {
        "encoding": "inplace",
        "label": "contract IFxStateSender",
        "numberOfBytes": "20"
      },
      "t_mapping(t_address,t_address)": {
        "encoding": "mapping",
        "key": "t_address",
        "label": "mapping(address => address)",
        "numberOfBytes": "32",
        "value": "t_address"
      },
      "t_mapping(t_bytes32,t_bool)": {
        "encoding": "mapping",
        "key": "t_bytes32",
        "label": "mapping(bytes32 => bool)",
        "numberOfBytes": "32",
        "value": "t_bool"
      }
    }
  }
}